:020000040800F2
:10000000C0080020450100084F0800080F02000842
:100010004D0800088B020008ED09000800000000F0
:10002000000000000000000000000000510800086F
:100030008D02000800000000970100085308000826
:100040005F0100085F0100085F0100085F01000810
:100050005F0100085F0100085F0100085F01000800
:100060005F0100085F0100085F0100085F010008F0
:100070005F0100085F0100085F0100085F010008E0
:100080005F0100085F0100085F0100085F010008D0
:100090005F0100085F0100085F0100085F010008C0
:1000A0005F0100085F0100085F0100085F010008B0
:1000B0005F0100085F0100085F0100085F010008A0
:1000C0005F0100085F0100085F0100085F01000890
:1000D0005F0100085F0100085F0100085F01000880
:1000E0005F0100085F0100085F0100085F01000870
:1000F0005F0100085F0100085F0100085F01000860
:100100005F0100085F0100085F0100085F0100084F
:100110005F0100085F0100085F0100085F0100083F
:100120005F0100085F0100085F0100085F0100082F
:10013000DFF80CD000F092F8004800478102000878
:10014000C00800200648804706480047FEE7FEE753
:10015000FEE7FEE7FEE7FEE7FEE7FEE7FEE7FEE777
:10016000CD08000831010008EFF3108072B6704727
:1001700080F310887047334A1368012B04D04FF086
:1001800001031360304A1060304A116030484FF06C
:10019000805101607047EFF3108272B62948016800
:1001A00091B14FF0000101602748016829B1EFF3D8
:1001B000098121E9F00F0068016024490968096894
:1001C000B1E8F00F81F3098882F310884EF0040E35
:1001D00070471E4908601C494FF00000086019492B
:1001E0004FF0010008601B484FF47F01D0F8002059
:1001F00041EA0201016016484FF080510160164843
:100200000068006880F3088861B662B670471EF027
:10021000040F0CBFEFF30880EFF3098020E9F00F23
:1002200040F804ED1EF0040F0CBF80F3088880F343
:10023000098800B500F046FE5DF804EB4EF0040EB0
:1002400070470000840000207C0000208000002017
:1002500004ED00E020ED00E008ED00E0064C074D65
:1002600006E0E06840F0010394E807009847103486
:10027000AC42F6D3FFF760FFA01D0008C01D0008C8
:1002800010B501F0BFFC002010BDFEE770477047BD
:100290002DE9F84FDFF8C891002409F1040A0AF1AA
:1002A000040B23460F270BF1040ED1E00125A540D6
:1002B00006EA0502AA4276D1DFF8A8C14E68A6EB8D
:1002C0000C0866452BD00DDC032E34D005DC36B38C
:1002D000012E19D0022E2FD11BE0112E16D0122E76
:1002E0002AD119E0B8F5881F19D006DCB8F5803F8F
:1002F00015D0B8F5801F1FD111E0B8F5001F0ED042
:10030000B8F5041F18D10AE0CB6815E0CB681B1DB7
:1003100012E0CB6808330FE0CB680C330CE08B683D
:100320002BB1012B4FF0080303D0456104E00423F7
:1003300002E0056100E00023FF2A01D8064601E043
:1003400000F104064FEA840501D9A5F12005D6F88D
:10035000008007FA05FC28EA0C0803FA05F548EACC
:100360000508C6F800804D68ED0070D53E4DAE69B9
:1003700046F00106AE61AD6924F0030605F0010503
:1003800000953A4D06EB050CDCF80850A607360F31
:1003900007FA06F825EA0805DFF8D480404503D1BE
:1003A0004FF0000825E052E0DFF8C880404502D158
:1003B0004FF001081DE0DFF8C080404502D14FF04A
:1003C000020816E0DFF8B480404502D14FF0030880
:1003D0000FE0DFF8AC80404502D14FF0040808E0A0
:1003E000DFF8A080404502D14FF0050801E04FF052
:1003F000060808FA06F848EA0508CCF808804D68AF
:10040000D9F80060ED034D4601D5164300E0964350
:100410002E604D68DAF80060AD03554601D51643ED
:1004200000E096432E604D68DBF80060ED025D460B
:1004300001D5164300E096432E604D68DEF800605B
:10044000AD02754601D5164300E096432E60641C4C
:100450000A681646E2407FF429AFBDE8F88F000035
:100460000004014000001110001002400000014093
:1004700000080140000C0140001001400014014040
:1004800000180140001C0140C26821EA02030A4032
:1004900043EA0241016170470AB1016170470904F2
:1004A000FBE7000001488068704700000000002062
:1004B000074810B5016841F010010160032000F009
:1004C00067F8002000F006F800F024F8002010BDC6
:1004D0000020024070B50D4D04464FF47A71287823
:1004E000B1FBF0F00A490968B1FBF0F000F082F8C6
:1004F00048B9102C07D200222146501E00F028F8DF
:1005000000206C6070BD012070BD00000000002064
:100510000C0000200C4808B5816941F0010181619F
:10052000816901F001010091C16941F08051C1610F
:10053000C06900F0805000900448416821F0E061FB
:1005400041F00071416008BD001002400000014010
:10055000F0B40E4B1B680C46C3F30223C3F107052E
:10056000042D00D90425191D072901D2002300E01C
:10057000DB1E012606FA05F1491E214099409E40E6
:10058000761E16403143F0BC00F042BA0CED00E09C
:10059000064900F0070208684FF6FF03184040EADA
:1005A0000220034A10430860704700000CED00E091
:1005B0000000FA050448054900684968044AC1F387
:1005C0000221515CC84070470C000020001002401E
:1005D000661C00080448054900684968044AC1F3DC
:1005E000C221515CC84070470C000020001002403E
:1005F000661C000810B5401EB0F1807F01D30120B9
:1006000010BD4FF0E02460610F21601700F000FA88
:100610000020A06107202061002010BD70B50400FB
:1006200004D094F83900002510B106E0012070BD17
:1006300084F83850204600F023F8242084F839004C
:100640002068C16821F40051C160204600F040F9E3
:100650002068016921F4904101612068416921F01D
:100660002A0141612068C16841F40051C160E5631D
:10067000202084F8390084F83A00002070BD000082
:1006800030B585B00024009401940294039400686E
:100690001449884224D11448816941F48041816120
:1006A000816901F480410491816941F00401816113
:1006B00080690E4D00F0040004904FF4007000902B
:1006C000022001900320039069462846FFF7E0FDD1
:1006D0002815CDE90004694628460294FFF7D8FDA5
:1006E00005B030BD00380140001002400008014054
:1006F0002DE9F843044690F839001F4616460D468A
:1007000020284CD1C5B1BEB194F83800012846D09C
:10071000012084F838004FF00008C4F83C80212004
:1007200084F83900FFF7BEFEA6848146E684A068FF
:10073000B0F5805F03D004E00120BDE8F8832069B4
:1007400028B12E465FF0000584F838800EE00026C0
:10075000FAE78021204600F017F9A0B9AEB116F8EB
:10076000010B21684860E08C401EE084E08C4B4621
:100770004FF0000200970028EBD14FF040012046D7
:1007800000F002F930B10320D7E735F8020BC0F3CF
:100790000800E6E7202084F839000020CDE7022099
:1007A000CBE7000030B585B00024184800940194D0
:1007B00002940394816941F040018161816901F0F3
:1007C00040010491816941F010018161816901F06A
:1007D00010010491816941F00401816180690C4D2F
:1007E00000F004000490002220212846FFF754FE68
:1007F000202000900120CDE90104022003906946E9
:100800002846FFF745FD05B030BD0000001002404E
:10081000001801400C4810B50A4901604FF4E1315D
:100820004160002181600C22C160C0E90412816135
:10083000C161FFF7F3FE002803D0BDE81040FFF7C9
:1008400026BD10BD003801408C000020FEE7704737
:10085000704710B500F04CFC00F0A6FFBDE810405A
:1008600000F054BC144910B54868144A10F00C0349
:10087000134803D0042B01D0082B09D0026049682B
:10088000104AC1F30311515C0268CA40026010BDF6
:100890004A684B6802F470124FF0020413F4803F70
:1008A00004EB924202D04B689B0301D5064B00E05B
:1008B000024B5A43E2E700000010024000127A00A7
:1008C0000C000020561C000800093D007047000085
:1008D00070B5044600680169E26821F44051114393
:1008E00001612169A0680843616908432168CA68F9
:1008F00041F20C639A430243CA6020684169A269CD
:1009000021F44071114341611E492068884202D19F
:10091000FFF760FE01E0FFF74DFE00EBC00101EBC9
:100920000012606864218000B2FBF0F3B3FBF1F3C6
:100930006FF018067343B2FBF0F5B2FBF0F605EB6F
:100940008305322303EB0515B5FBF1F5B6FBF1F694
:1009500005F0F00505EB0615B2FBF0F6B2FBF0F082
:10096000B0FBF1F06FF01802504306EB800003EB90
:100970000010B0FBF1F0216800F00F0028448860FF
:1009800070BD0000003801402DE9F041984617463F
:100990000E460446069D1DE0681C1BD02DB1FFF7D6
:1009A00081FDA0EB0800A84214D92068C16821F499
:1009B000D071C1602068416921F0010141612020AE
:1009C00084F8390084F83A00002084F838000320C5
:1009D000BDE8F0812068006836EA000004D00020FD
:1009E000B842D9D00020F3E70120F9E7FEE7000084
:1009F0000FB4054B10B503A9044A029800F054F84F
:100A000010BC5DF814FB0000150C000888000020E5
:100A10000907090E002804DB00F1E02080F800142B
:100A2000704700F00F0000F1E02080F8141D7047BF
:100A3000002806D00E4910F0FF0F03D0C0B2085CAA
:100A4000401C704710F47F4F04D0C0F30720085CAF
:100A50000930704710F47F0F04D0C0F30740085CE2
:100A60001130704701EB10600078193070470000BA
:100A70006E1C000802E008C8121F08C1002AFAD143
:100A800070477047002001E001C1121F002AFBD10E
:100A90007047000003480168814201D0012070477F
:100AA00000207047640000202DE9F84F99469246D7
:100AB00088460546002706E025280AD051464A46C2
:100AC00090476D1C7F1C28780028F5D13846BDE87A
:100AD000F88F002315F8011F18462E2915D115F897
:100AE000011F04232A290DD06FF02F022978A1F1CC
:100AF0003004092C09D800EB800002EB40000844C8
:100B00006D1CF3E758F8040B6D1C2A78002ADDD021
:100B1000632A07D0732A0FD0104651464A469047A1
:100B20007F1C2AE018F8042B8DF8002000218DF896
:100B300001106E46012103E058F8046B4FF0FF31BD
:100B40005A074FF0000401D409E0641C84420BDA18
:100B50008C42FADB325D002AF7D105E0641C8C423E
:100B6000FCDB305D0028F9D1274404E016F8010BC6
:100B700051464A469047641EF8D26D1CA3E7000018
:100B80002DE9FC411F460446DDE90831DDE90A652F
:100B9000143040600060C4E90827C4E90A310A46FD
:100BA000232118461C3400F0E7FAD4E90301421867
:100BB000D4E90101104B121F00F07EFA44F81A0B21
:100BC000002004F801690D4A04F8036BE4E802050B
:100BD00044F8105901C404F83C0B01C444F87409EA
:100BE000009023460190194604F1440000F04EFEA7
:100BF0000020BDE8FC810000AD140008E7160008E5
:100C0000F0E905124A60D0E900121160406000600E
:100C10007047000013B54FF47A7301226946024809
:100C2000FFF766FD1CBD00008C000020064C4FF451
:100C3000FA7506A000F078FA20212046FFF724FC80
:100C4000284600F0CDFCF4E70018014048656C6CC4
:100C50006F205254545F4E414E4F2056332E312E4A
:100C600033200A0010B500F0C9F8BDE81040FFF7C6
:100C7000DDBF00002DE9F04F85B09946DDE90EA5F6
:100C8000109CAB46630602D5DFF814C103E0DFF821
:100C900010C1ACF1110CE30601D524F00104E30707
:100CA00001D0302300E0202300260493A3070BD5B6
:100CB000002A02DA2D26524206E0630701D52B26D0
:100CC00002E0230700D520260023EE4622B9302279
:100CD0008DF8002001230CE0B9F10A0F14D002F0C6
:100CE0000F0812091CF808800EF803805B1C002A0C
:100CF000F2D1AB4200DD1D46AAEB050214F0110F44
:100D00004FF0200708D015E00A27B2FBF7F807FBE1
:100D10001828B2FBF7F2E5E73EB1002A05DD521EC6
:100D200003E0884200D20770401CB2F1000CA2F12F
:100D30000102F6DC26B1884200D20670401C521E29
:100D4000E40605D508E0884201D2049C0470401CEA
:100D5000141EA2F10102F6DC30242E466D1E9E42C6
:100D60000ADD884200D20470401CF6E7884201D2B6
:100D7000E55C0570401C00E074461D1EA3F10103F4
:100D800007DDBBF1000FF1D103E0884200D207700C
:100D9000401C131EA2F10102F7DC05B0BDE8F08F84
:100DA0007F1D00081FB50A4C14230A224FF48071DE
:100DB000A4F580708DE80F000023064A06A12046A6
:100DC00000F0F6FB04B02046BDE8104000F054BC33
:100DD000D0010020650C00086D61696E0000000004
:100DE00070B5044C044D02E020688047241DAC42DD
:100DF000FAD370BD941D0008981D000870B5044C0E
:100E0000044D02E020688047241DAC42FAD370BD37
:100E1000981D00089C1D000810B5FFF7A5F9044AAD
:100E20005188491C5180BDE81040FFF7A1B900006E
:100E30005800002010B5FFF797F90B4C6188491E48
:100E400009B2618000290ADC00216180FFF790F976
:100E50006068002807D0BDE8104000F005BABDE882
:100E60001040FFF785B910BD5800002010B5FFF7FE
:100E70001FFBFFF7F7FC0E484FF47A710068B0FBD8
:100E8000F1F0401EB0F1807F09D24FF0E021094A15
:100E90004861FF2010700020886107200861FFF77B
:100EA0009FFFFFF77FFCBDE81040FFF7B3BC0000D9
:100EB0000C00002023ED00E0014601A0FFF798BDE3
:100EC0002573000070B50546041D2B48016819B153
:100ED0002846884700284DD028A0E16B00F024F96F
:100EE0002AA0216A00F020F92CA0616A00F01CF908
:100EF0002EA0A16A00F018F930A0E16A00F014F900
:100F000032A0216800F010F934A0616800F00CF9FB
:100F100036A0A16800F008F938A0E16800F004F9F3
:100F20003AA0216900F000F93CA0616900F0FCF8EA
:100F30003EA0A16900F0F8F840A0E16900F0F4F8E3
:100F400042A0216B00F0F0F844A0616B00F0ECF8D7
:100F500046A0A16B00F0E8F82878400706D500F01D
:100F600065FB014645A000F0DFF802E04BA000F071
:100F7000DBF8FEE770BD0000780000207073723A65
:100F8000203078253038780A000000007230303A7E
:100F9000203078253038780A000000007230313A6D
:100FA000203078253038780A000000007230323A5C
:100FB000203078253038780A000000007230333A4B
:100FC000203078253038780A000000007230343A3A
:100FD000203078253038780A000000007230353A29
:100FE000203078253038780A000000007230363A18
:100FF000203078253038780A000000007230373A07
:10100000203078253038780A000000007230383AF5
:10101000203078253038780A000000007230393AE4
:10102000203078253038780A000000007231303ADC
:10103000203078253038780A000000007231313ACB
:10104000203078253038780A000000007231323ABA
:10105000203078253038780A00000000206C723A81
:10106000203078253038780A000000002070633A7C
:10107000203078253038780A0000000068617264FA
:10108000206661756C74206F6E207468726561648F
:101090003A2025730D0A0D0A000000006861726491
:1010A000206661756C74206F6E2068616E646C657B
:1010B000720D0A0D0A00000070B50446121D22F0E0
:1010C00007000022094D403840F82250521C102AD7
:1010D000FAD301620021416281624FF0807200F117
:1010E0003005C263C16285E81A0070BDEFBEADDE97
:1010F00010B5FFF739F8044A1178491C1170BDE8A2
:101100001040FFF735B800001400002010B5FFF7BD
:101110002BF8044A1178491E1170BDE81040FFF702
:1011200027B80000140000200FB47F2110B503ABD6
:101130000448029A00F020FC0248FFF7BDFE10BCF4
:101140005DF814FB400300200268516002680A60E9
:101150000160486070470268516002680A6001607F
:1011600048607047D0E900124A60D0E9001211606F
:10117000406000607047000010B50346CCB2042AFE
:101180001AD3810718D1194644EA042343EA0343DA
:1011900006E008C1103A08C141F8083B41F8043C98
:1011A000102AF6D201E008C1121F042AFBD20B4616
:1011B00002E000BF03F8014B521EFBD210BD10B578
:1011C000044600202072FEF7CFFFF4E903124A60C4
:1011D000D4E90012116064602460BDE81040FEF79D
:1011E000C7BF0000074A002102EB01131B788342AE
:1011F00002D102EB01107047491C0429F4DB0020E6
:1012000070470000180000202DE9F0410546174600
:101210000E460846FFF7E6FF0446FFF7FDFD211DD9
:10122000606800E000688842FCD1FFF703FE46F0EA
:101230008000287208223946284600F0EDF8FEF7B3
:1012400093FF54F8041F0C354D6021682960256018
:101250006C60BDE8F041FEF78BBF007A000601D557
:10126000012070470020704770B5FEF77DFF114CDC
:1012700005466088B0B9A068FFF7DAFB0E49401E4A
:10128000626851F83010143991420BD020700B482D
:101290006160007801F11C01002802F11C0006D0F9
:1012A000FEF769FF2846BDE87040FEF761BFFEF714
:1012B00062FFF7E758000020C00300201400002060
:1012C00010B50446FEF750FF024694F834000E496C
:1012D00020F00F00401C84F8340094F8350001EB36
:1012E000C00104F114004B6818604B68A3614860AA
:1012F00006486161A16B836819438160BDE81040B5
:101300001046FEF735BF0000C00300205800002043
:1013100010B50446FEF728FF04F11401D1E90023BB
:101320005360D1E900231A60A161616194F835200E
:10133000074951F8323001EBC2018B4204D1054913
:10134000A36B8A689A438A60BDE81040FEF710BF1D
:10135000C00300205800002008B509A0FFF7E4FEF4
:101360000AA0FFF7E1FE12A0032300900122194614
:1013700012A0FFF7D9FEBDE8084018A0FFF7D4BEC1
:101380000A205C207C202F0A000000002D205254EF
:10139000202D2020202020546872656164204F7029
:1013A00065726174696E672053797374656D0A00A4
:1013B0004F6374202037203230323000202F207CC1
:1013C000205C202020202025642E25642E256420EA
:1013D0006275696C642025730A0000002032303089
:1013E00036202D203230313920436F707972696791
:1013F00068742062792072742D746872656164204B
:101400007465616D0A000000014600E0491C0A781D
:10141000002AFBD1081A704710B5002A07D00346EE
:1014200011F8014B03F8014B2CB1521EF8D110BD3D
:1014300003F8011B00E00021521EF9D110BD00008D
:1014400010B50A4900230A4C4B80184604EBC00231
:10145000401C526012602028F8DB1F2008700348EF
:101460004B600C308B604060006010BD5800002065
:10147000C003002010B5074CA068FFF7D9FA064951
:10148000401E51F8300014386060BDE810401C3038
:10149000FEF79FBE58000020C003002001484060B6
:1014A00000607047700000207047000070B513485E
:1014B0000468FEF759FE05462046FFF729FF042081
:1014C00084F8340004F1440000F0D0F92046FFF71E
:1014D000C4FE012801D1206F58B104F1140108485D
:1014E000FFF732FE2846FEF743FEBDE87040FFF7E7
:1014F000BBBE2046FFF763FEF4E700005C0000205F
:101500006400002000F002F8FCE7000070B521E064
:10151000FEF72AFE0546FFF7BDFA28B31548016815
:10152000A1F11404D1E900024260D1E90002106087
:1015300049600960FFF770FC216F09B120468847B8
:101540002046FFF78AFE012809D0FFF773FC2846E2
:10155000FEF70EFEFFF79EFA0028D9D170BD204697
:10156000FFF72DFEFFF766FC2846BDE87040FEF74A
:10157000FFBD0000640000201FB5094820231F2282
:1015800080218DE80F000023064A07A1783800F07B
:101590000FF804B00248BDE81040783800F06CB88D
:1015A000C0020020051500087469646C6500000025
:1015B0002DE9FF5F92460EAA0C4692E8E0010A462A
:1015C000994683460121FFF71FFE8DE8E0014B4657
:1015D000524621465846FFF7D3FA04B0BDE8F09FC3
:1015E00010B500F0C1F8BDE8104000F025B870B5A6
:1015F000044690F8340000F00F00022802D04FF0AB
:10160000FF3070BDFEF7B0FD054604F11400FFF792
:10161000A9FD04F1440000F097F92846FEF7A8FD63
:101620002046FFF74DFE002070BD00000148006815
:10163000704700005C000020F1B5FEF795FD0546FF
:101640000C480468204600F02DF804F144006A4676
:101650000021064600F0F2F8304600F02FF9284647
:10166000FEF786FDFFF700FE206B801C00D1206393
:101670000020F8BD5C00002010B590F83610012263
:1016800080F835108A400221826380F83410FFF719
:10169000AEFF0348006808B1FFF7E6FD002010BD6B
:1016A0005C00002070B5044690F8340000F00F0094
:1016B000012802D04FF0FF3070BDFEF755FD054602
:1016C00094F8340020F00F00801C84F83400204689
:1016D000FFF71EFE04F1440000F036F92846FEF73D
:1016E00047FD002070BD10B504466FF00100206377
:1016F00004F11400FFF736FD2046FFF7E1FDBDE8D9
:101700001040FFF7B1BD000070B5FEF72DFD064695
:101710001348046894F8340000F00F00012819D130
:10172000D4E90501884215D004F114000546FFF7FD
:1017300019FD94F835000B4901EBC00041680D60BC
:1017400041686960456028603046FEF711FDFFF78B
:101750008BFD02E03046FEF70BFD002070BD00005F
:101760005C000020C0030020002802DA4FF0FF30A8
:1017700070474FF47A7190FBF1F290FBF1F301FBAB
:10178000130000EB40034A43C3EBC0104B1E03EBB6
:10179000C00090FBF1F01044704700000148006861
:1017A0007047000010000020094810B50168491C6E
:1017B0000160FFF73BFF016C491E016403D1C16B5F
:1017C0000164FFF7A1FFBDE8104000F003B800007E
:1017D000100000202DE9F041FFF7E0FF0646FEF77C
:1017E000C3FC0746144D1EE060696FF00041301ADB
:1017F000143C88421AD22046FFF702FAD4E90710B7
:101800008847FFF7CBFF0646607A810708D5C107F6
:1018100006D020F001006072204600F04FF802E090
:1018200020F0010060722C68AC42DDD13846BDE882
:10183000F041FEF79DBC00007000002049B1012975
:1018400004D0022908D003290ED109E0406A1060B3
:101850000AE01168416207E0417A21F0020102E0EA
:10186000417A41F0020141720020704770B505468F
:10187000FEF77AFC04462846FFF7C2F92046FEF739
:1018800077FC2846FFF79BFC002070BD2DE9F04156
:101890001746DDE906580A461E4604460A21FFF7A8
:1018A000B3FC28F0010161720021C4E90951C4E9C7
:1018B0000776143464602460BDE8F081F8B504460E
:1018C000FEF752FC05462046FFF79AF9607A20F0B1
:1018D000010060722846FEF74BFCFFF75FFF616A6C
:1018E0000844A062FEF740FC0546164A002000921C
:1018F00002EBC002694653686FF0004C5DF820208F
:101900000BE01268A2EBC0067769A66AB74202D064
:10191000BE1B664503D341F820209A42F1D1094805
:10192000001F0168491C016004F114010098FFF7D1
:1019300012FC607A40F0010060722846FEF718FC45
:101940000020F8BD7000002070B50446407AC00742
:101950000ED0FEF709FC05462046FFF751F9284650
:10196000FEF706FC607A20F001006072002070BD76
:101970004FF0FF3070BD00002DE9FF4F894604464F
:1019800000EB090783B080464FF0FF3A4FF0200B81
:10199000A74202D25746C8F1FF3907E1252803D0F4
:1019A000BC4200D2207081E000260599491C0591B7
:1019B00008782D2811D02B2812D0202813D02328C6
:1019C00014D0302815D00A785546303A0A2A13D256
:1019D00005A800F02CF905461AE046F01006E4E7E9
:1019E00046F00406E1E746F00806DEE746F020068A
:1019F000DBE746F00106D8E72A2809D10698491CFA
:101A0000059120C80690002D02DA6D4246F01006BE
:101A1000CDF800A0059801782E2918D1401C05901A
:101A20000178A1F130020A2A04D205A800F0FFF8DB
:101A3000009008E02A2908D1401C0590069802C8A9
:101A4000069000910846002801DA002000900598D1
:101A500000210278682A01D06C2A02D1401C11466C
:101A6000059000780A236F287DD00CDC63281FD0F6
:101A700004DC25287BD058280DD17EE0642801D0D5
:101A8000692808D17DE070285ED073282CD0752895
:101A900079D0782873D0BC4201D2252020700598D7
:101AA000641C0178D1B3BC4200D22170641C7AE07E
:101AB000F00608D458466D1E002D04DDBC4200D24D
:101AC0002070641CF7E70699BC4211F8040B0691DC
:101AD00000D22070584602E0BC4200D22070641C44
:101AE0006D1E002DF8DC5EE0069808C8069003B96C
:101AF0003EA31846FFF788FC0099002902DD8842C2
:101B000000DD0846F1060AD459462A466D1E824277
:101B100005DDBC4200D22170641CF6E752E00021D2
:101B200006E0BC4201D21A782270491C5B1C641C7E
:101B30008142F6DB5A4629466D1E814233DDBC42A6
:101B400000D22270641CF6E7681C02D1082546F01A
:101B5000010600980296CDE90050069810233946F8
:101B600004C806901BE006E001E00CE007E0BC4280
:101B70009CD2252016E7082305E046F040061023F6
:101B800001E046F002066C2901D068291DD00698B4
:101B900004C8069000983946CDE9005002962046C8
:101BA000FFF768F804460598401C059005980078F2
:101BB00000287FF4F3AEB9F1000F11D0BC420DD272
:101BC00020700DE0401E0590EDE7069830F8041BEC
:101BD00006908AB2B007DDD512B2DBE707F8010C38
:101BE00007B0A4EB0800BDE8F08F0000284E554C6C
:101BF0004C290000002070470020704700207047EB
:101C00000020704710B5FEF7AFFAFFF72FF9FFF786
:101C1000A3FBFFF743FCFFF713FCFFF7C3F8FFF745
:101C200043FCFFF7A9FCFFF725FC002010BD10B511
:101C3000014600206FF02F0307E0541C0C6012785F
:101C400000EB800003EB400010440A681478303C3D
:101C50000A2CF2D310BD00000000000000000102B9
:101C60000304060708090000000001020304000045
:101C70000100020001000300010002000100040055
:101C80000100020001000300010002000100050044
:101C90000100020001000300010002000100040035
:101CA0000100020001000300010002000100060023
:101CB0000100020001000300010002000100040015
:101CC0000100020001000300010002000100050004
:101CD00001000200010003000100020001000400F5
:101CE00001000200010003000100020001000700E2
:101CF00001000200010003000100020001000400D5
:101D000001000200010003000100020001000500C3
:101D100001000200010003000100020001000400B4
:101D200001000200010003000100020001000600A2
:101D30000100020001000300010002000100040094
:101D40000100020001000300010002000100050083
:101D50000100020001000300010002000100040074
:101D60000100020001000300010002000100303107
:101D70003233343536373839616263646566003032
:101D800031323334353637383941424344454600E1
:101D9000011C0008F91B0008F51B0008FD1B0008CA
:101DA000C01D0008000000208C000000740A00081C
:101DB0004C1E00088C00002034080000840A000833
:101DC0000100000010000000000000000024F400EA
:101DD0000000000000000000010000001C000020C6
:101DE0001C00002078000000020000002C000020F1
:101DF0002C00002020000000050000003C00002016
:101E00003C000020300000000A0000004C000020D0
:101E10004C0000202C00000000000000000000002A
:101E200000000000000000000000000000000000B2
:101E300000000000000000000000000000000000A2
:0C1E400000000000000000000000000096
:0400000508000131BD
:00000001FF
