:020000040800F2
:100000002009002045010008BB2E00080F0200084F
:10001000B92E00081505000859300008000000003E
:10002000000000000000000000000000BD2E0008DD
:10003000170500080000000097010008BF2E000807
:100040005F0100085F0100085F0100085F01000810
:100050005F0100085F0100085F0100085F01000800
:100060005F0100085F0100085F0100085F010008F0
:100070005F0100085F0100085F0100085F010008E0
:100080005F0100085F0100085F0100085F010008D0
:100090005F0100085F0100085F0100085F010008C0
:1000A0005F0100085F0100085F0100085F010008B0
:1000B0005F0100085F0100085F0100085F010008A0
:1000C0005F0100085F0100085F0100085F01000890
:1000D0005F0100085F0100085F0100085F01000880
:1000E0005F0100085F0100085F0100085F01000870
:1000F0005F0100085F0100085F0100085F01000860
:100100005F0100085F0100085F0100085F0100084F
:100110005F0100085F0100085F0100085F0100083F
:100120005F0100085F0100085F0100085F0100082F
:10013000DFF80CD000F0C8F9004800470B050008B4
:10014000200900200648804706480047FEE7FEE7F2
:10015000FEE7FEE7FEE7FEE7FEE7FEE7FEE7FEE777
:10016000392F000831010008EFF3108072B6704794
:1001700080F310887047334A1368012B04D04FF086
:1001800001031360304A1060304A116030484FF06C
:10019000805101607047EFF3108272B62948016800
:1001A00091B14FF0000101602748016829B1EFF3D8
:1001B000098121E9F00F0068016024490968096894
:1001C000B1E8F00F81F3098882F310884EF0040E35
:1001D00070471E4908601C494FF00000086019492B
:1001E0004FF0010008601B484FF47F01D0F8002059
:1001F00041EA0201016016484FF080510160164843
:100200000068006880F3088861B662B670471EF027
:10021000040F0CBFEFF30880EFF3098020E9F00F23
:1002200040F804ED1EF0040F0CBF80F3088880F343
:10023000098800B503F0CEFB5DF804EB4EF0040E28
:10024000704700008C0000208400002088000020FF
:1002500004ED00E020ED00E008ED00E0202A04DBE2
:10026000203A21FA02F00021704721FA02F3D0402F
:10027000C2F1200291400843194670472DE9FE4F14
:1002800081EA030404F0004421F0004100944FF09F
:10029000000B23F0004350EA01045ED052EA03044D
:1002A0005BD0C3F30A54C1F30A552C44A4F2F334CF
:1002B0000194A0FB0254C1F3130141F48011C3F374
:1002C000130343F4801301FB024400FB034E840A32
:1002D000970A44EA815447EA8357A4FB07680295CA
:1002E0008D0A05FB07854FEA932C04FB0C54270568
:1002F000029D4FEA065847EA1637B5EB08056EEB44
:10030000070C870E920E47EA811742EA8312A7FB79
:100310000201B6EB0B0164EB00042B0D43EA0C3336
:100320005E1844EB1C50DA465146E7FB0201C5F368
:1003300013044FEA0B3343EA14534FEA0432019C8F
:1003400043EA0603A4F10C040294009CCDE900B436
:1003500000F06CF803B0BDE8F08F00200146F9E72B
:100360000EB540F2334102910021CDE900110A4659
:100370000B4600F05BF803B000BDC1F30A5210B5A4
:10038000C1F3130140F2FF3341F480119A4201DAC4
:10039000002010BD40F233439A42A2F2334203DC04
:1003A0005242FFF75BFF10BD904010BD2DE9F05F9A
:1003B0000546002092469B468846064681464024D4
:1003C0001BE02846414647462246FFF747FF534673
:1003D0005A46C01A914110D311461846224600F0E1
:1003E00085F82D1A67EB01084F46224601200021AF
:1003F00000F07CF817EB00094E41201EA4F1010427
:10040000DFDC484631462A464346BDE8F09F10B53A
:10041000141E73F1000408DA401C41F10001921827
:100420005B411A4301D120F0010010BD2DE9F04DD0
:1004300092469B4611B1B1FA81F202E0B0FA80F225
:100440002032904600F052F804460F4640EA0A0077
:1004500041EA0B0153465A46084313D0114653EA6A
:10046000010019D0C8F140025046FFF7F7FE0546DB
:100470000E4650465946424600F038F8084305D02B
:10048000012004E020463946BDE8F08D00200543F8
:1004900046EAE0762C4337430A986305E40AA0EB6A
:1004A00008000022FD0A44EA47540A3002D5002021
:1004B0000146E9E7010510196941DDE90845001920
:1004C0006941BDE8F04DA2E7064C074D06E0E06843
:1004D00040F0010394E8070098471034AC42F6D38B
:1004E000FFF72AFEF48F000814900008202A04DB8E
:1004F000203A00FA02F1002070479140C2F1200337
:1005000020FA03F319439040704710B504F004F942
:10051000002010BDFEE770477047000030B5B3F50E
:10052000804F05D06FF0704140F82210002030BDA0
:100530008C690B688D6823434C688989240144EADF
:100540000524234343EA014150F82230014C234063
:100550001943E9E70000F0CF10B50A6850F82230DF
:1005600023F0010340F822308C68082C23D00023AC
:100570004A682243CC681C430B6922431A434B69E7
:100580000E4C1A43CB691A430B6A1A434B6A1A433F
:100590008B6A1A43CB6A1A430B6B1A438B6913435A
:1005A0004A6B09681A4350F82130A343134340F8BB
:1005B0002130002010BD4023DAE700007FFF0F004C
:1005C00030B5D1E9003443EA04138C688D892402E4
:1005D00044EA054423430C8A094D00EB820005EBF5
:1005E000045423430C7D6D0105EB046489692343A6
:1005F0000B43416801F040410B434360002030BD94
:100600000000F0FF2DE9F84FDFF8C891002409F150
:10061000040A0AF1040B23460F270BF1040ED1E064
:100620000125A54006EA0502AA4276D1DFF8A8C155
:100630004E68A6EB0C0866452BD00DDC032E34D09B
:1006400005DC36B3012E19D0022E2FD11BE0112E5E
:1006500016D0122E2AD119E0B8F5881F19D006DC61
:10066000B8F5803F15D0B8F5801F1FD111E0B8F55F
:10067000001F0ED0B8F5041F18D10AE0CB6815E0B2
:10068000CB681B1D12E0CB6808330FE0CB680C333E
:100690000CE08B682BB1012B4FF0080303D04561B0
:1006A00004E0042302E0056100E00023FF2A01D8F2
:1006B000064601E000F104064FEA840501D9A5F1E0
:1006C0002005D6F8008007FA05FC28EA0C0803FA92
:1006D00005F548EA0508C6F800804D68ED0070D5BC
:1006E0003E4DAE6946F00106AE61AD6924F00306E9
:1006F00005F0010500953A4D06EB050CDCF80850B5
:10070000A607360F07FA06F825EA0805DFF8D480B1
:10071000404503D14FF0000825E052E0DFF8C880E3
:10072000404502D14FF001081DE0DFF8C080404590
:1007300002D14FF0020816E0DFF8B480404502D144
:100740004FF003080FE0DFF8AC80404502D14FF0D6
:10075000040808E0DFF8A080404502D14FF005080A
:1007600001E04FF0060808FA06F848EA0508CCF858
:1007700008804D68D9F80060ED034D4601D5164359
:1007800000E096432E604D68DAF80060AD035546F0
:1007900001D5164300E096432E604D68DBF80060FB
:1007A000ED025D4601D5164300E096432E604D688C
:1007B000DEF80060AD02754601D5164300E09643B1
:1007C0002E60641C0A681646E2407FF429AFBDE83B
:1007D000F88F0000000401400000111000100240DA
:1007E0000000014000080140000C014000100140E1
:1007F0000014014000180140001C0140C26821EAB9
:1008000002030A4043EA0241016170470AB10161F3
:1008100070470904FBE7000001488068704700004A
:1008200000000020074810B5016841F01001016088
:10083000032000F067F8002000F006F800F024F82C
:10084000002010BD0020024070B50D4D04464FF44D
:100850007A712878B1FBF0F00A490968B1FBF0F031
:1008600000F0FCF848B9102C07D200222146501E97
:1008700000F028F800206C6070BD012070BD000001
:10088000000000200C0000200C4808B5816941F0F0
:1008900001018161816901F001010091C16941F0AB
:1008A0008051C161C06900F08050009004484168E7
:1008B00021F0E06141F00071416008BD001002408C
:1008C00000000140F0B40E4B1B680C46C3F302233A
:1008D000C3F10705042D00D90425191D072901D2EC
:1008E000002300E0DB1E012606FA05F1491E214027
:1008F00099409E40761E16403143F0BC02F0D2BBB8
:100900000CED00E0064900F0070208684FF6FF030F
:10091000184040EA0220034A104308607047000074
:100920000CED00E00000FA0504480549006849683C
:10093000044AC1F30221515CC84070470C000020FA
:10094000001002407A4700080448054900684968D9
:10095000044AC1F3C221515CC84070470C0000201A
:10096000001002407A47000870B515460E46040094
:1009700007D0A069B0F5807F03D094F8410010B192
:1009800007E0012070BD002084F84000204600F000
:100990001DF804F108012068FFF7DEFD3146A2686A
:1009A0002068FFF70DFED4E901022946236BFFF70B
:1009B000B5FDA168206850F8212042F0010240F8FE
:1009C0002120012084F84100002070BD1F4800B59F
:1009D000416985B041F480714161416901F48071E0
:1009E0000491816941F020018161816901F0200158
:1009F0000491816941F040018161816901F0400108
:100A00000491816941F4807181618069694600F4D3
:100A1000807004904CF2337000900220019001200D
:100A20000290032003900A48FFF7ECFD4FF6807018
:100A3000009069460748FFF7E5FD41F2010000908C
:100A400069460548FFF7DEFD05B000BD0010024015
:100A500000140140001801400020014010B5401E64
:100A6000B0F1807F01D3012010BD4FF0E024606120
:100A70000F21601702F016FB0020A0610720206103
:100A8000002010BD70B5040004D094F83900002592
:100A900010B106E0012070BD84F83850204600F007
:100AA00023F8242084F839002068C16821F400511B
:100AB000C160204602F042FA2068016921F49041A9
:100AC00001612068416921F02A0141612068C16803
:100AD00041F40051C160E563202084F8390084F8B6
:100AE0003A00002070BD000030B585B000240094AD
:100AF00001940294039400681449884224D1144854
:100B0000816941F480418161816901F480410491EE
:100B1000816941F00401816180690E4D00F004009B
:100B200004904FF400700090022001900320039085
:100B300069462846FFF766FD2815CDE90004694699
:100B400028460294FFF75EFD05B030BD0038014035
:100B500000100240000801402DE9F843044690F8D7
:100B600039001F4616460D4620284CD1C5B1BEB1EE
:100B700094F83800012846D0012084F838004FF05E
:100B80000008C4F83C80212084F83900FFF744FEB7
:100B9000A6848146E684A068B0F5805F03D004E0B7
:100BA0000120BDE8F883206928B12E465FF00005DA
:100BB00084F838800EE00026FAE78021204602F013
:100BC00019FAA0B9AEB116F8010B21684860E08CA3
:100BD000401EE084E08C4B464FF000020097002856
:100BE000EBD14FF04001204602F004FA30B103206F
:100BF000D7E735F8020BC0F30800E6E7202084F8B9
:100C000039000020CDE70220CBE7000070B50A498B
:100C10000646002408884D8821464543204601F0B9
:100C2000D5FF02F0E3F8B0B2044901E00880641C8B
:100C3000AC42FBD370BD0000100500200008006C22
:100C40002DE9F04F33492C240A4688712A259288D1
:100C50002B2645F2105B4FF4305E4FF448774FF08F
:100C6000F00949F2413A4FF4A07845F2103C4FF4B4
:100C7000F07358B1A1F80080A1F80290524501D05C
:100C8000624529D10C814D818E8139E0A1F8009017
:100C9000A1F80280524501D0624508D10C814D81F6
:100CA0008E81624531D1A1F800804B802DE05A45FC
:100CB00008D1A1F808E04FF4285048814FF42C5097
:100CC000888106E0A2F5C85063381ED10C814E81A0
:100CD0008D810B804F8018E05A4508D1A1F808E0BB
:100CE0004FF4285048814FF42C50888106E0A2F53B
:100CF000C850633804D10C814D818E810F804B80A8
:100D0000624502D10B80A1F80280BDE8F04F0020BF
:100D100001F0B0BE100500202DE9F047DFF8B490D7
:100D2000DFF8B4804B46B9F804609C8992460D0AFE
:100D3000070A5B89A6F5134C08F10202BCF1410CCD
:100D400010D0A6F5A04CBCF5447C0BD0A6F5A04C69
:100D5000BCF5A26C0ED0A6F5C85C4F46BCF1630C86
:100D600017D02EE0A8F800301780C0B21080A8F885
:100D7000004023E0A8F8003017805B1CA8F8003082
:100D8000C0B21080A8F800401580641CA8F800408C
:100D900015E0BE7926B9B9F80060301A401E80B25D
:100DA000A8F80030030A1380C6B216801380C0B2C0
:100DB0001080A8F800401580C8B210801580C8B215
:100DC0001080B9F80800A8F80000A2F800A0BDE85B
:100DD000F087000010050020FE07006C2DE9F04FA1
:100DE000FE4895B08069FD4940F008008861886937
:100DF000032400F0080000900120CDE912041090B7
:100E0000119010A9F648FFF7FDFBF6484FF0204B74
:100E1000F5490622C0F800B0C0E9011200211023F4
:100E2000C160C0E9041381611B02C161C0E90913FB
:100E30009B00C0E90B13416381631A20CDE90A10BE
:100E40000F91099202940591CDE90312089102AA2B
:100E500009A9E448FFF788FD322003F04BF9E34D80
:100E6000D3202880AC1C2088DE4E2088483620887D
:100E70004FF6FF7101EA0021208849F2413808430A
:100E8000B08045F2103945F2105741F6631A4045DB
:100E90002FD0D42028802088208821884FF6FF700A
:100EA00000EA012221881143B180494521D04FF445
:100EB0005A41298021884FF45B41298021884FF4D1
:100EC0005C4200EA01212A8022880A43B280B2F5FE
:100ED000004F7DD0BA420CD0A121298021882188E1
:100EE00000EA012120880843A0F5AE41B0806139B5
:100EF0006FD0B08840456DD1CF2028800020208061
:100F0000C120208030202080ED2028806420208097
:100F1000032020801220208081202080E82028804B
:100F200085202080102020807A202080CB202880DF
:100F3000392020802C202080002020803420208018
:100F400002202080F720288020202080EA2028808E
:100F5000002020802080C02028801B202080C120ED
:100F6000288001202080C5202880302020802080FB
:100F7000C7202880B7202080362028804820208065
:100F80003A20288055202080B12028800020208011
:100F90001A202080B62028800A202080A2202080CD
:100FA000F220288000202080262028800120208018
:100FB000E02028800F2020802A20208028202080E8
:100FC000082020800E20208008202080542002E06D
:100FD0004BE046E04BE02080A92020804320208089
:100FE0000A2020800F202080002020802080208068
:100FF0002080E120288000202080152020801720DC
:1010000020800720208011202080062020802B2097
:101010002080562020803C20208005202080102029
:1010200020800F2020803F20208020800F202080E3
:101030002B202880002020802080012020803F203D
:1010400020802A2028800020208020802080EF20FF
:10105000208011202880782003F04CF8292001F00E
:101060003CBCA6F804A001F03CBCB780FEE34845B8
:101070007ED1ED20288001202080FE202080EE20DF
:101080002880DE20208021202080F120288001205F
:101090002080DF20288010202080C42028808F20FE
:1010A0002080C620288000202080E2202080208010
:1010B0002080BF202880AA202080B02028800D20FA
:1010C0002080002020800D20208000202080112002
:1010D00020800020208019202080002020802120D6
:1010E0002080002020802D202080002020803D2096
:1010F0002080002020805D202080002020805D2036
:10110000208000202080B1202880802020800020A6
:1011100020808B20208000202080962020800020AE
:101120002080B22028800020208020800220208083
:10113000002020800320208000202080B3202880F1
:10114000002020802080208020802080208020801F
:10115000208020802080208020802080208020808F
:10116000208020802080208020802080208000E03F
:10117000FEE320802080B42028808B202080002067
:1011800020809620208000202080A1202080002028
:101190002080B5202880022020800020208003208D
:1011A0002080002020800420208000202080B62085
:1011B0002880002020802080B720288000202080E8
:1011C00020803F202080002020805E202080002082
:1011D0002080642020800020208009E00010024050
:1011E000000C0140C8040020040100A0FE07006CB0
:1011F0008C20208000202080AC20208000202080B7
:10120000DC20208000202080702020800020208092
:101210009020208000202080EB2020800020208053
:10122000DC20208000202080B82028800020208022
:101230002080208020802080208020802080BA2074
:101240002880242020800020208020802080C12031
:101250002880202020800020208054202080002012
:101260002080FF20208000202080C22028800A20AB
:101270002080002020800420208000202080C320A7
:1012800028803C202080002020803A2020800020E0
:1012900020803920208000202080372020800020DE
:1012A00020803C20208000202080362020800020CC
:1012B000208032202080002020802F2020800020CD
:1012C00020802C20208000202080292020800020C9
:1012D00020802620208000202080242020800020C4
:1012E00020802420208000202080232020800020B7
:1012F00020803C202080002020803620208000207C
:10130000208032202080002020802F20208000207C
:1013100020802C2020800020208029202080002078
:101320002080262020800020208024202080002073
:101330002080242020800020208023202080002066
:101340002080C4202880622020800020208005206A
:101350002080002020808420208000202080F02019
:101360002080002020801820208000202080A420C1
:101370002080002020801820208000202080502005
:101380002080002020800C2020800020208017203A
:101390002080002020809520208000202080F320C5
:1013A000208000202080E620208000202080C52092
:1013B00028803220208000202080442020800020AF
:1013C0002080652020800020208076202080002042
:1013D00020808820208000202080C6202880202097
:1013E00020800020208017202080002020800120E5
:1013F000208000202080C72028800020208020809E
:1014000020802080C820288000202080208020800C
:101410002080C920288000202080208020802080FB
:1014200020802080208020802080208020802080BC
:101430002080208020802080E020288016202080AE
:10144000002020801C20208000202080212020805F
:101450000020208036202080002020804620208010
:1014600000202080522020800020208064202080C6
:10147000002020807A202080002020808B20208067
:10148000002020809920208000202080A82020801B
:1014900000202080B920208000202080C4202080CF
:1014A00000202080CA20208000202080D2202080A0
:1014B00000202080D920208000202080E020208073
:1014C00000202080F320208000202080E120288040
:1014D00016202080002020801C20208000202080DA
:1014E00022202080002020803620208000202080A4
:1014F0004520208000202080522020800020208055
:1015000064202080002020807A20208000202080FD
:101510008B202080002020809920208000202080A7
:10152000A820208000202080B9202080002020805A
:10153000C420208000202080CA202080002020801D
:10154000D220208000202080D820208000202080F1
:10155000E020208000202080F320208000202080B8
:10156000E220288005202080002020800B20208081
:10157000002020801B20208000202080342020801C
:101580000020208044202080002020804F202080C8
:101590000020208061202080002020807920208071
:1015A000002020808820208000202080972020801C
:1015B00000202080A620208000202080B7202080CE
:1015C00000202080C220208000202080C720208092
:1015D00000202080D120208000202080D620208064
:1015E00000202080DD20208000202080F32020802B
:1015F00000202080E32028800520208000202080FB
:101600000A202080002020801C20208000202080B4
:101610003320208000202080442020800020208053
:101620005020208000202080622020800020208008
:1016300078202080002020808820208000202080AA
:101640009720208000202080A6202080002020805D
:10165000B720208000202080C22020800020208011
:10166000C720208000202080D120208000202080E2
:10167000D520208000202080DD20208000202080B8
:10168000F320208000202080E4202880012020807A
:101690000020208001202080002020800220208047
:1016A000002020802A202080002020803C202080D4
:1016B000002020804B202080002020805D20208082
:1016C0000020208074202080002020808420208022
:1016D000002020809320208000202080A2202080D5
:1016E00000202080B320208000202080BE20208089
:1016F00000202080C420208000202080CD20208059
:1017000000202080D320208000202080DD20208029
:1017100000202080F320208000202080E5202880E9
:101720000020208020802080208002202080002037
:10173000208029202080002020803C202080002044
:1017400020804B202080002020805D2020800020F1
:101750002080742020800020208084202080002091
:1017600020809320208000202080A2202080002044
:101770002080B320208000202080BE2020800020F8
:101780002080C420208000202080CD2020800020C8
:101790002080D320208000202080DC20208000209A
:1017A0002080F320208000202080E6202880112047
:1017B000208000202080342020800020208056209F
:1017C000208000202080762020800020208077202C
:1017D000208000202080662020800020208088201B
:1017E0002080002020809920208000202080BB20A5
:1017F00020800020208099202080002020806620EA
:10180000208000202080552020800020208055202E
:101810002080002020804520208000202080432040
:101820002080002020804420208000202080E7208D
:101830002880322020800020208055202080002019
:1018400020807620208000202080662020800020BC
:1018500020806720208000202080672020800020BA
:101860002080872020800020208000E0BCE099209C
:10187000208000202080BB20208000202080992014
:10188000208000202080772020800020208044209D
:1018900020800020208056202080002020802320CF
:1018A00020800020208033202080002020804520C0
:1018B000208000202080E8202880002020802080B8
:1018C00099202080002020808720208000202080F8
:1018D0008820208000202080772020800020208009
:1018E000662020800020208088202080002020800A
:1018F000AA20208000202080BB2020800020208083
:1019000099202080002020806620208000202080D8
:10191000552020800020208055202080002020801D
:10192000442020800020208044202080002020802F
:101930005520208000202080E9202880AA202080B7
:1019400000202080208020802880AA202080CF2096
:1019500028800020208020802080208020802080FF
:10196000208020802080208020802080208000E037
:1019700038E02080208020802080F02028800020F7
:101980002080502020800020208020802080F32094
:10199000288000202080F920288006202080102028
:1019A000208029202080002020803A202880552077
:1019B000208011202880642002F09CFB29202880B0
:1019C000352028800020208051202880FF20208082
:1019D000532028802C2020805520288082202080A1
:1019E0002C20FDE3B8427DD14FF4704355211846B9
:1019F00001F006FA4FF20104AA21204601F000FA94
:101A00005221601C01F0FCF90821A01C01F0F8F93A
:101A10000121E01C01F0F4F90D214FF4304001F0F8
:101A2000EFF90D214BF2010001F0EAF90D214BF223
:101A3000020001F0E5F934214FF4364001F0E0F9FD
:101A400034214BF2016001F0DBF934214BF20260EA
:101A500001F0D6F90D214FF4314001F0D1F90D21FB
:101A60004BF2011001F0CCF90D214BF2021001F004
:101A7000C7F934214FF4374001F0C2F934214BF259
:101A8000017001F0BDF934214BF2027001F0B8F998
:101A900000214FF4324001F0B3F900214BF2012054
:101AA00001F0AEF900214BF2022001F0A9F9242146
:101AB0004FF4384001F0A4F924214BF6010001F065
:101AC0009FF924214BF6020001F09AF901214FF40D
:101AD0003F4001F095F90F214FF4334001F090F9A8
:101AE0000F2100E0FEE34BF2013001F089F90F21F4
:101AF0004BF2023001F084F934214FF4394001F007
:101B00007FF934214BF6011001F07AF934214BF6BC
:101B1000021001F075F908214FF4354001F070F919
:101B200008214BF2015001F06BF908214BF20250F1
:101B300001F066F903214FF4424001F061F92421DC
:101B40004FF43A4001F05CF924214BF6012001F0FA
:101B500057F924214BF6022001F052F900214FF4ED
:101B60003C4001F04DF978214BF6014001F048F975
:101B700000214BF6024001F043F900214FF43D40B3
:101B800001F03EF978214BF6015001F039F90021BE
:101B90004BF6025001F034F900214FF43E4001F0C1
:101BA0002FF964214BF6016001F02AF900214FF46E
:101BB000514001F025F933214DF2011001F020F9D7
:101BC00000214DF2021001F01BF934214DF20310F7
:101BD00001F016F900214DF2041001F011F93A213B
:101BE0004DF2051001F00CF900214DF2061001F044
:101BF00007F94A214DF2071001F002F900214DF2D8
:101C0000081001F0FDF85C214DF2091001F0F8F820
:101C100000214DF20A1001F0F3F881214DF20B1072
:101C200001F0EEF800214DF20C1001F0E9F8A621C8
:101C30004DF20D1001F0E4F800214DF20E1001F00C
:101C4000DFF8E5214DF20F1001F0DAF801214DF235
:101C5000101001F0D5F813214DF2111001F0D0F859
:101C600001214DF2121001F0CBF854214DF2131066
:101C700001F0C6F801214DF2141001F0C1F88221E3
:101C80004DF2151001F0BCF801214DF2161001F0D3
:101C9000B7F8CA214DF2171001F0B2F802214DF247
:101CA000181001F0ADF800214DF2191001F0A8F85C
:101CB00002214DF21A1001F0A3F801214DF21B1080
:101CC00001F09EF802214DF21C1001F099F8342128
:101CD0004DF21D1001F094F802214DF21E1001F09A
:101CE0008FF867214DF21F1001F08AF802214DF2A2
:101CF000201001F085F884214DF2211001F080F8C8
:101D000002214DF2221001F07BF8A4214DF22310A4
:101D100001F076F802214DF2241001F071F8B7219C
:101D20004DF2251001F06CF802214DF2261001F061
:101D300067F8CF214DF2271001F062F802214DF231
:101D4000281001F05DF8DE214DF2291001F058F85D
:101D500002214DF22A1001F053F8F2214DF22B101E
:101D600001F04EF802214DF22C1001F049F8FE214D
:101D70004DF22D1001F044F803214DF22E1001F028
:101D80003FF810214DF22F1001F03AF803214DF2E7
:101D9000301001F035F833214DF2311001F030F8F8
:101DA00003214DF2321001F02BF86D214DF233106A
:101DB00001F026F800214FF4524001F021F83321C0
:101DC0004DF2012001F01CF800214DF2022001F03B
:101DD00017F834214DF2032001F012F800214DF2E2
:101DE000042001F00DF83A214DF2052001F008F829
:101DF00000214DF2062001F003F84A214DF20720A0
:101E000000F0FEFF00214DF2082000F0F9FF5C21F8
:101E10004DF2092000F0F4FF00214DF20A2000F0FD
:101E2000EFFF81214DF20B2000F0EAFF00214DF27F
:101E30000C2000F0E5FFA6214DF20D2000F0E0FFA0
:101E400000214DF20E2000F0DBFFE5214DF20F20C6
:101E500000F0D6FF01214DF2102000F0D1FF132138
:101E60004DF2112000F0CCFF01214DF2122000F0C4
:101E7000C7FF54214DF2132000F0C2FF01214DF2A3
:101E8000142000F0BDFF82214DF2152000F0B8FFB4
:101E900001214DF2162000F0B3FFCA214DF21720A8
:101EA00000F0AEFF02214DF2182000F0A9FF002142
:101EB0004DF2192000F0A4FF02214DF21A2000F08B
:101EC0009FFF01214DF21B2000F09AFF02214DF2ED
:101ED0001C2000F095FF34214DF21D2000F090FFF2
:101EE00002214DF21E2000F08BFF67214DF21F20D2
:101EF00000F086FF02214DF2202000F081FF8421B6
:101F00004DF2212000F07CFF02214DF2222000F052
:101F100077FFA4214DF2232000F072FF02214DF241
:101F2000242000F06DFFB7214DF2252000F068FF5E
:101F300002214DF2262000F063FFCF214DF2272031
:101F400000F05EFF02214DF2282000F059FFDE2153
:101F50004DF2292000F054FF02214DF22A2000F01A
:101F60004FFFF2214DF22B2000F04AFF02214DF2EB
:101F70002C2000F045FFFE214DF22D2000F040FF07
:101F800003214DF22E2000F03BFF10214DF22F20B7
:101F900000F036FF03214DF2302000F031FF3321F5
:101FA0004DF2312000F02CFF03214DF2322000F0E1
:101FB00027FF6D214DF2332000F022FF00214FF466
:101FC000534000F01DFF33214DF2013000F018FFA7
:101FD00000214DF2023000F013FF34214DF20330A6
:101FE00000F00EFF00214DF2043000F009FF3A210D
:101FF0004DF2053000F004FF00214DF2063000F0F4
:10200000FFFE4A214DF2073000F0FAFE00214DF2AA
:10201000083000F0F5FE5C214DF2093000F0F0FED2
:1020200000214DF20A3000F0EBFE81214DF20B3021
:1020300000F0E6FE00214DF20C3000F0E1FEA6219A
:102040004DF20D3000F0DCFE00214DF20E3000F0BC
:10205000D7FEE5214DF20F3000F0D2FE01214DF206
:10206000103000F0CDFE13214DF2113000F0C8FE0B
:1020700001214DF2123000F0C3FE54214DF2133015
:1020800000F0BEFE01214DF2143000F0B9FE8221B5
:102090004DF2153000F0B4FE01214DF2163000F083
:1020A000AFFECA214DF2173000F0AAFE02214DF218
:1020B000183000F0A5FE00214DF2193000F0A0FE0E
:1020C00002214DF21A3000F09BFE01214DF21B302F
:1020D00000F096FE02214DF21C3000F091FE3421FA
:1020E0004DF21D3000F08CFE02214DF21E3000F04A
:1020F00087FE67214DF21F3000F082FE02214DF273
:10210000203000F07DFE84214DF2213000F078FE79
:1021100002214DF2223000F073FEA4214DF2233053
:1021200000F06EFE02214DF2243000F069FEB7216E
:102130004DF2253000F064FE02214DF2263000F011
:102140005FFECF214DF2273000F05AFE02214DF202
:10215000283000F055FEDE214DF2293000F050FE0F
:1021600002214DF22A3000F04BFEF2214DF22B30CD
:1021700000F046FE02214DF22C3000F041FEFE211F
:102180004DF22D3000F03CFE03214DF22E3000F0D8
:1021900037FE10214DF22F3000F032FE03214DF2B8
:1021A000303000F02DFE33214DF2313000F028FEAA
:1021B00003214DF2323000F023FE6D214DF2333019
:1021C00000F01EFE00214FF4544000F019FE3321B0
:1021D0004DF2014000F014FE00214DF2024000E0FB
:1021E0007BE300F00DFE34214DF2034000F008FEC9
:1021F00000214DF2044000F003FE3A214DF205406B
:1022000000F0FEFD00214DF2064000F0F9FD4A21EC
:102210004DF2074000F0F4FD00214DF2084000F0BF
:10222000EFFD5C214DF2094000F0EAFD00214DF286
:102230000A4000F0E5FD81214DF20B4000F0E0FD89
:1022400000214DF20C4000F0DBFDA6214DF20D40C7
:1022500000F0D6FD00214DF20E4000F0D1FDE52149
:102260004DF20F4000F0CCFD01214DF2104000F086
:10227000C7FD13214DF2114000F0C2FD01214DF2C6
:10228000124000F0BDFD54214DF2134000F0B8FDA6
:1022900001214DF2144000F0B3FD82214DF21540B2
:1022A00000F0AEFD01214DF2164000F0A9FDCA215B
:1022B0004DF2174000F0A4FD02214DF2184000F04D
:1022C0009FFD00214DF2194000F09AFD02214DF2D0
:1022D0001A4000F095FD01214DF21B4000F090FDE9
:1022E000022100E0FBE24DF21C4000F089FD3421A8
:1022F0004DF21D4000F084FD02214DF21E4000F021
:102300007FFD67214DF21F4000F07AFD02214DF262
:10231000204000F075FD84214DF2214000F070FD59
:1023200002214DF2224000F06BFDA4214DF223402A
:1023300000F066FD02214DF2244000F061FDB7215E
:102340004DF2254000F05CFD02214DF2264000F0E8
:1023500057FDCF214DF2274000F052FD02214DF2F2
:10236000284000F04DFDDE214DF2294000F048FDEF
:1023700002214DF22A4000F043FDF2214DF22B40A4
:1023800000F03EFD02214DF22C4000F039FDFE210F
:102390004DF22D4000F034FD03214DF22E4000F0AF
:1023A0002FFD10214DF22F4000F02AFD03214DF2A8
:1023B000304000F025FD33214DF2314000F020FD8A
:1023C00003214DF2324000F01BFD6D214DF23340F0
:1023D00000F016FD00214FF4554000F011FD3321AF
:1023E0004DF2015000F00CFD00214DF2025000F0C2
:1023F00007FD34214DF2035000F002FD00214DF2A3
:10240000045000F0FDFC3A214DF2055000F0F8FCBC
:1024100000214DF2065000F0F3FC4A214DF2075026
:1024200000F0EEFC00214DF2085000F0E9FC5C21C8
:102430004DF2095000F0E4FC00214DF20A5000F08A
:10244000DFFC81214DF20B5000F0DAFC00214DF24F
:102450000C5000F0D5FCA6214DF20D5000F0D0FC40
:1024600000214DF20E5000F0CBFCE5214DF20F5053
:1024700000F0C6FC01214DF2105000F0C1FC132108
:102480004DF2115000F0BCFC01214DF2125000F051
:10249000B7FC54214DF2135000F0B2FC01214DF273
:1024A000145000F0ADFC82214DF2155000F0A8FC54
:1024B00001214DF2165000F0A3FCCA214DF2175035
:1024C00000F09EFC02214DF2185000F099FC002112
:1024D0004DF2195000F094FC02214DF21A5000F018
:1024E0008FFC01214DF21B5000F08AFC02214DF2BD
:1024F0001C5000F085FC34214DF21D5000F080FC92
:1025000002214DF21E5000F07BFC67214DF21F505E
:1025100000F076FC02214DF2205000F071FC842185
:102520004DF2215000F06CFC02214DF2225000F0DF
:1025300067FCA4214DF2235000F062FC02214DF211
:10254000245000F05DFCB7214DF2255000F058FCFE
:1025500002214DF2265000F053FCCF214DF22750BE
:1025600000F04EFC02214DF2285000F049FCDE2123
:102570004DF2295000F044FC02214DF22A5000F0A7
:102580003FFCF2214DF22B5000F03AFC02214DF2BB
:102590002C5000F035FCFE214DF22D5000F030FCA7
:1025A00003214DF22E5000F02BFC10214DF22F5044
:1025B00000F026FC03214DF2305000F021FC3321C5
:1025C0004DF2315000F01CFC03214DF2325000F06E
:1025D00017FC6D214DF2335000F012FC00214FF436
:1025E000564000F00DFC33214DF2016000F008FC74
:1025F00000214DF2026000F003FC34214DF2036033
:1026000000F0FEFB00214DF2046000F0F9FB3A21DE
:102610004DF2056000F0F4FB00214DF2066000F081
:10262000EFFB4A214DF2076000F0EAFB00214DF27A
:10263000086000F0E5FB5C214DF2096000F0E0FB72
:1026400000214DF20A6000F0DBFB81214DF20B60AE
:1026500000F0D6FB00214DF20C6000F0D1FBA6216A
:102660004DF20D6000F0CCFB00214DF20E6000F049
:10267000C7FBE5214DF20F6000F0C2FB01214DF2D6
:10268000106000F0BDFB13214DF2116000F0B8FBAB
:1026900001214DF2126000F0B3FB54214DF21360A2
:1026A00000F0AEFB01214DF2146000F0A9FB822185
:1026B0004DF2156000F0A4FB01214DF2166000F010
:1026C0009FFBCA214DF2176000F09AFB02214DF2E8
:1026D000186000F095FB00214DF2196000F090FBAE
:1026E00002214DF21A6000F08BFB01214DF21B60BC
:1026F00000F086FB02214DF21C6000F081FB3421CA
:102700004DF21D6000F07CFB02214DF21E6000F0D6
:1027100077FB67214DF21F6000F072FB02214DF242
:10272000206000F06DFB84214DF2216000F068FB19
:1027300002214DF2226000F063FBA4214DF22360E0
:1027400000F05EFB02214DF2246000F059FBB7213E
:102750004DF2256000F054FB02214DF2266000F09E
:102760004FFBCF214DF2276000F04AFB02214DF2D2
:10277000286000F045FBDE214DF2296000F040FBAF
:1027800002214DF22A6000F03BFBF2214DF22B605A
:1027900000F036FB02214DF22C6000F031FBFE21EF
:1027A0004DF22D6000F02CFB03214DF22E6000F065
:1027B00027FB10214DF22F6000F022FB03214DF288
:1027C000306000F01DFB33214DF2316000F018FB4A
:1027D00003214DF2326000F013FB6D214DF23360A6
:1027E00000F00EFB5521184600F00AFBAA212046F6
:1027F00000F006FB5221601C00F002FB0821A01C27
:1028000000F0FEFA0021E01C00F0FAFACC214FF4AF
:10281000314000F0F5FA00214BF2011000F0F0FA1F
:1028200005214FF4364000F0EBFA70214FF43740A9
:1028300000F0E6FA70214BF2017000F0E1FA01219C
:102840004FF4384000F0DCFA03214BF6010000F0B1
:10285000D7FA03214BF6020000F0D2FA03214BF61F
:10286000030000F0CDFA02214FF43C4000F0C8FA1A
:1028700000214BF6014000F0C3FA00214BF6024064
:1028800000F0BEFAD0214FF4494000F0B9FA02211D
:102890004CF6011000F0B4FA50214CF6021000F092
:1028A000AFFA50214CF6031000F0AAFA50214CF672
:1028B000041000F0A5FA00214FF4545000F0A0FAE3
:1028C00055214FF4685000F09BFA4FF4885028804F
:1028D000782001F072FB4FF4245028807BE05045B3
:1028E00079D1E22028801D20208002202080042031
:1028F0002080642001F061FBE020288001202080FE
:102900000A2001F0F7FBE0202880032020800C2023
:1029100001F0F0FB012028800A2001F0EBFBE6200B
:1029200028802F202080FF2020802080B020288039
:1029300020202080002020800320208040F21F30B3
:1029400020800120208040F2DF10208000202080A5
:10295000B42028800420208040F21F4020800020E6
:1029600020802E2020800020208020802080208039
:10297000B6202880022020804FF4037020800020A1
:10298000208017202080152020800020208020809B
:10299000F02028800320208029202880D020288033
:1029A00000202080BE20288005202080FE2020805E
:1029B000012020800020208020802080B8202880D6
:1029C0000320208001202080BA2028800120208040
:1029D000642000F031F8B088404505D0484503D068
:1029E000B84201D0504517D1DBF81C1121F00F017E
:1029F000CBF81C11DBF81C1121F47061CBF81C1111
:102A0000DBF81C1141F00101CBF81C11DBF81C11A3
:102A100041F48071CBF81C110020FEF711F9054933
:102A20000120C1F880014FF6FF70FEF7EFF815B0F6
:102A3000BDE8F08F008021420C4A10B5BE21118004
:102A4000941C05212180FDF78BFC4FF06632084B6A
:102A5000FDF714FCFDF791FC208001202080FF2071
:102A6000208000202080208010BD0000FE07006C28
:102A700066660440F0B5534B002419469A7989885C
:102A800041F66316012A01D01AB11BE0B14202D10E
:102A900018E0B14216D1082814D2DFE800F004068D
:102AA000080A0C0E101206200CE007200AE0042091
:102AB00008E0052006E0012004E0002002E00320F9
:102AC00000E00220A1F5134745F2103245F21055FF
:102AD000413F05D0914203D0A94201D0B1426FD10C
:102AE000082812D2DFE800F0110406080A0C0E10C4
:102AF00080240AE0402408E0C02406E0202404E00A
:102B0000602402E0A02400E0E024A94202D14FF4B6
:102B1000585000E03620914205D0A94203D0B1427E
:102B200001D044F00804214600F06AF99988B142C6
:102B30000AD0A00618885A8802D5904202D303E032
:102B4000904201D91A8058801F4A901CA942598985
:102B5000118021D1002404804C1C148000240480A6
:102B60008C1C14801C88641E250A0580C91C1180D9
:102B7000E1B2018099891180002404804C1C1480EA
:102B8000002404808C1C14805B885B1E1C0A04805B
:102B9000C91C1180D9B212E000210180018019887E
:102BA000491E0C0A0480C9B2018099891180002154
:102BB000018001805988491E0A0A0280C9B2018039
:102BC000F0BD000010050020FE07006C2DE9F04369
:102BD000DFF8D890364A4B46B9F804709C890E0A43
:102BE000050A5B89A7F5134C02F10208BCF1410C00
:102BF0001DD0A7F5A04CBCF5447C18D0A7F5C85C47
:102C0000BCF1630C1DD0A7F5A04CBCF5A26C3CD167
:102C10001380A8F800505B1C1380C0B2A8F8000015
:102C20001480A8F80060641C1480C8B22BE01380E4
:102C3000A8F80050C0B2A8F800001480A8F80060FE
:102C4000F3E71A4F99F806C03F88BCF1000F1ED079
:102C50001380A8F80050C0B2A8F800007F1E380A00
:102C6000A8F800005FFA87F0A8F800001480A8F820
:102C70000060C9B2A8F80010B9F80200401E010AAD
:102C8000A8F80010C0B2A8F80000BDE8F083381A18
:102C9000401E80B213800023A8F80030A8F800304E
:102CA000030AA8F80030C0B2DEE7000010050020DB
:102CB000FE07006C2DE9FF4F1D460C468A4658075B
:102CC00000D0012000EBD50069084843203A00F00D
:102CD000FF09D0B20026DFF8A8B002904BE00C2D1F
:102CE00011D0102D14D0182D17D0202D45D12549E5
:102CF000029801EBC0104FF00008875D380613D52D
:102D00002148026814E00298204900EB400008E0E6
:102D10001F49029801EB0010EDE702981D4900EBF6
:102D2000C00001EB8000E6E70D9828B9164842681C
:102D300021460098FDF7F0FF7806070E641CBBF8EB
:102D40000200A4B2A04218D9A4EB0A00A84209D1FB
:102D500000985446401C80B20090BBF8001081429D
:102D60000BD906E008F1010000F0FF08B8F1080FE8
:102D7000C4D3761CF6B24E45B1D3BDE8FF8F000038
:102D8000100500206460000878000020A4480008B6
:102D9000184D0008085300082DE9F84F044600F0CC
:102DA000FF0910190D46DDE90AB61FFA80F8581917
:102DB00087B24FF0000A12E0444503D305EB0B0045
:102DC0004C4685B2BD420FD25B4629462046CDF81F
:102DD00000A0FFF76FFF04EB5B0084B2761C327833
:102DE000A2F120005E28E7D9BDE8F88F0248034928
:102DF000008908807047000010050020FE07006C65
:102E0000024A1080901C018070470000FE07006C91
:102E100030B585B0002418480094019402940394BE
:102E2000816941F040018161816901F040010491B3
:102E3000816941F010018161816901F01001049103
:102E4000816941F00401816180690C4D00F004004A
:102E50000490002220212846FDF7D8FC2020009075
:102E60000120CDE901040220039069462846FDF7C0
:102E7000C9FB05B030BD0000001002400018014041
:102E80000C4810B50A4901604FF4E131416000215E
:102E900081600C22C160C0E904128161C161FDF74B
:102EA000F1FD002803D0BDE81040FDF735BB10BD93
:102EB0000038014094000020FEE77047704710B5CD
:102EC00000F09EFE01F0FAF9BDE8104000F0A6BE49
:102ED000144910B54868144A10F00C03134803D085
:102EE000042B01D0082B09D002604968104AC1F3B5
:102EF0000311515C0268CA40026010BD4A684B6809
:102F000002F470124FF0020413F4803F04EB92427B
:102F100002D04B689B0301D5064B00E0024B5A439D
:102F2000E2E700000010024000127A000C000020CE
:102F30006A47000800093D007047000070B504466C
:102F400000680169E26821F440511143016121697F
:102F5000A0680843616908432168CA6841F20C63AC
:102F60009A430243CA6020684169A26921F4407112
:102F7000114341611E492068884202D1FDF7E4FCFB
:102F800001E0FDF7D1FC00EBC00101EB001260682D
:102F900064218000B2FBF0F3B3FBF1F36FF018068D
:102FA0007343B2FBF0F5B2FBF0F605EB8305322379
:102FB00003EB0515B5FBF1F5B6FBF1F605F0F005F1
:102FC00005EB0615B2FBF0F6B2FBF0F0B0FBF1F04A
:102FD0006FF01802504306EB800003EB0010B0FBCB
:102FE000F1F0216800F00F002844886070BD0000F7
:102FF000003801402DE9F041984617460E46044638
:10300000069D1DE0681C1BD02DB1FDF705FCA0EB53
:103010000800A84214D92068C16821F4D071C160A9
:103020002068416921F001014161202084F83900C4
:1030300084F83A00002084F838000320BDE8F081CD
:103040002068006836EA000004D00020B842D9D0D9
:103050000020F3E70120F9E7FEE700000FB4054B7D
:1030600010B503A9044A029800F068F810BC5DF896
:1030700014FB00003D360008900000200FB4084B00
:1030800010B504A902AA039800F058F8044602A952
:10309000002000F0CEFA204610BC5DF814FB0000C2
:1030A000333600080907090E002804DB00F1E02090
:1030B00080F80014704700F00F0000F1E02080F865
:1030C000141D7047002806D00E4910F0FF0F03D0E2
:1030D000C0B2085C401C704710F47F4F04D0C0F3AE
:1030E0000720085C0930704710F47F0F04D0C0F34C
:1030F0000740085C1130704701EB10600078193010
:10310000704700008247000802E008C8121F08C18B
:10311000002AFAD170477047002001E001C1121F58
:10312000002AFBD17047000003480168814201D0AA
:103130000120704700207047640000202DE9FF4FF8
:103140008DB00F460546002606E025280BD0DDE9A8
:103150000F1290476D1C761C28780028F5D111B00D
:103160003046BDE8F08F0024A246A1460122EC497A
:1031700000E0044315F8013F203B02FA03F0084247
:10318000F7D128782A2810D06FF02F022878A0F1E4
:103190003001092914D80AEB8A0102EB410144F0FD
:1031A000020400EB010A6D1CF0E701CF5FEA000AA0
:1031B00003D544F40054CAF1000A44F002046D1C23
:1031C00028782E2817D115F8010F44F004042A2876
:1031D0000ED06FF02F022878A0F1300109290AD80B
:1031E00009EB890102EB410100EB01096D1CF2E7DB
:1031F00057F8049B6D1C28786C280FD006DC4C28EF
:1032000017D068280DD06A2814D104E0742810D093
:103210007A280FD10DE044F400140AE044F480143D
:1032200001E044F440146978814202D104F580142D
:103230006D1C6D1C2A786E2A1FD00CDC632A31D0DD
:1032400004DC002A8BD0582A11D1A3E0642A68D06C
:10325000692A0CD165E0732A2ED004DC6F2A73D062
:10326000702A04D19BE0752A6FD0782A6ED0104660
:10327000DDE90F129047761C50E1C4F3025002289A
:1032800006D0032809D0042801CF09D0066045E103
:1032900001CFF117C0E9006140E101CF06803DE1B7
:1032A00006703BE117F8040B8DF8000000208DF844
:1032B0000100EB46012003E057F804BB4FF0FF305C
:1032C00061074FF0000102D40DE008F101018846CA
:1032D00049450FDA8045F8DB1BF808100029F4D1C6
:1032E00008E008F1010188468142FADB1BF808106A
:1032F0000029F6D1DDE90F23AAEB0800814621461B
:1033000000F036F9304400EB080604E0DDE90F1266
:103310001BF8010B9047B8F10108F7D22146484647
:10332000F7E00A21C4F302534FF0000B0891022B7F
:1033300004D001CFC117032B09D00AE0FF1D27F0ED
:103340000707F7E8020108E032E01FE020E000B2E2
:10335000C117042B01D140B2C117031E71F1000344
:1033600007DA4FF0000CD0EB0C006CEB01012D23C1
:1033700002E0230504D52B238DF82430012303E03C
:10338000E30701D02023F7E7984658E00A2110E030
:1033900010210EE010204FF0000B08900CE01021DF
:1033A0004FF0000B44F004044FF00809089103E0CB
:1033B00008214FF0000B0891C4F30253022B04D0F4
:1033C00001CF0021032B06D006E0FF1D27F00707E1
:1033D000F7E8020103E080B2042B00D1C0B24FF045
:1033E000000823072BD5702A07D0DDF820C08CF009
:1033F000100C5CEA0B0C05D00EE040238DF8243055
:10340000012308E050EA010306D030238DF8243070
:103410008DF8252002239846DDF820C08CF0080C9A
:103420005CEA0B0C0BD150EA010301D1630706D50E
:1034300030238DF824304FF00108A9F10109582AF2
:1034400004D038A20B9208AA0A920BE03AA2F9E73C
:103450005B46089AFCF7AAFF0B9B9B5C0A9A521EDC
:103460000A92137050EA0102F2D10A98ADEB000003
:1034700000F1200B600702D524F4803401E04FF006
:103480000109D94502DDA9EB0B0000E0002000EBAB
:103490000B0141440890AAEB010AE00306D4DDE9E0
:1034A0000F232146504600F063F806444FF0000910
:1034B00008E009A911F80900DDE90F12904709F1A8
:1034C0000109761CC145F4DBE0030CD5DDE90F23CF
:1034D0002146504600F04CF8064404E0DDE90F12A6
:1034E00030209047761C0899481E08900029F5DC8A
:1034F00008E00A980A990078491C0A91DDE90F1240
:103500009047761CBBF10001ABF1010BF1DC2146C9
:103510005046DDE90F2300F019F806446D1C1BE648
:103520000928010030313233343536373839616299
:10353000636465660000000030313233343536375D
:103540003839414243444546000000002DE9F0412E
:10355000044600251E461746880404D405E0394673
:103560002020B0476D1C641EF9D52846BDE8F081C7
:103570002DE9F041044600251E469046C80301D5BA
:10358000302700E02027880404D505E0414638466E
:10359000B0476D1C641EF9D52846BDE8F0810000D7
:1035A0002DE9FC411F460446DDE90831DDE90A65E5
:1035B000143040600060C4E90827C4E90A310A46B3
:1035C000232118461C3400F05FFBD4E903014218A4
:1035D000D4E90101104B121F00F0F6FA44F81A0B5F
:1035E000002004F801690D4A04F8036BE4E80205C1
:1035F00044F8105901C404F83C0B01C444F87409A0
:10360000009023460190194604F1440000F0C8FEE2
:103610000020BDE8FC810000C13F0008FB4100081C
:10362000F0E905124A60D0E90012116040600060C4
:1036300070470A68531C0B601070704713B54FF445
:103640007A73012269460248FDF786FA1CBD000024
:103650009400002086B0FDF7C1FB284D284E4FF4A2
:1036600078442C60B28827A102A8FFF707FD4FF627
:10367000FF70FDF7CBFA2C60B18825A000F0DCFAD2
:10368000182027A1CDE900010346D22228211E20BF
:10369000FFF782FB102426A0CDE900402346C82274
:1036A00046211E20FFF778FB24A0CDE9004010231F
:1036B000C8225A211E20FFF76FFB02A8CDE9004067
:1036C0001023C8226E211E20FFF766FB0C201FA1CD
:1036D000CDE900010346C82282211E20FFF75CFBD2
:1036E0001D4C4FF4FA751DA000F0A6FA20212046CB
:1036F000FDF784F8284600F0FDFCF4E77800002090
:10370000100500204C43442049443A2530345800E9
:10371000204C43442049443A25780D0A000000001B
:10372000454C4954452053544D3332205E5F5E0072
:103730005446544C434420544553540041544F4D37
:1037400040414C49454E54454B0000003230313920
:103750002F392F32370000000018014048656C6C8B
:103760006F205254545F4E414E4F2056332E312E0F
:1037700033200A0010B500F0C9F8BDE81040FFF78B
:1037800069BF00002DE9F04F85B09946DDE90EA52F
:10379000109CAB46630602D5DFF814C103E0DFF8E6
:1037A00010C1ACF1110CE30601D524F00104E307CC
:1037B00001D0302300E0202300260493A3070BD57B
:1037C000002A02DA2D26524206E0630701D52B2695
:1037D00002E0230700D520260023EE4622B930223E
:1037E0008DF8002001230CE0B9F10A0F14D002F08B
:1037F0000F0812091CF808800EF803805B1C002AD1
:10380000F2D1AB4200DD1D46AAEB050214F0110F08
:103810004FF0200708D015E00A27B2FBF7F807FBA6
:103820001828B2FBF7F2E5E73EB1002A05DD521E8B
:1038300003E0884200D20770401CB2F1000CA2F1F4
:103840000102F6DC26B1884200D20670401C521EEE
:10385000E40605D508E0884201D2049C0470401CAF
:10386000141EA2F10102F6DC30242E466D1E9E428B
:103870000ADD884200D20470401CF6E7884201D27B
:10388000E55C0570401C00E074461D1EA3F10103B9
:1038900007DDBBF1000FF1D103E0884200D20770D1
:1038A000401C131EA2F10102F7DC05B0BDE8F08F49
:1038B000934800081FB50A4C14230A224FF4807164
:1038C000A4F580708DE80F000023064A06A120466B
:1038D00000F0F8FB04B02046BDE8104000F056BCF4
:1038E000D8010020753700086D61696E0000000086
:1038F00070B5044C044D02E020688047241DAC42A2
:10390000FAD370BDE88F0008EC8F000870B5044C46
:10391000044D02E020688047241DAC42FAD370BDFC
:10392000EC8F0008F08F000810B5FCF71DFC044A6E
:103930005188491C5180BDE81040FCF719BC0000BB
:103940005800002010B5FCF70FFC0B4C6188491E95
:1039500009B2618000290ADC00216180FCF708FCC3
:103960006068002807D0BDE8104000F005BABDE847
:103970001040FCF7FDBB10BD5800002010B5FCF74F
:1039800051FFFFF7A5FA0E484FF47A710068B0FBBB
:10399000F1F0401EB0F1807F09D24FF0E021094ADA
:1039A0004861FF2010700020886107200861FFF740
:1039B0009FFFFFF72DFABDE81040FFF761BA000046
:1039C0000C00002023ED00E0014601A0FFF746BBFC
:1039D0002573000070B50546041D2B48016819B118
:1039E0002846884700284DD028A0E16B00F024F934
:1039F0002AA0216A00F020F92CA0616A00F01CF9CD
:103A00002EA0A16A00F018F930A0E16A00F014F9C4
:103A100032A0216800F010F934A0616800F00CF9C0
:103A200036A0A16800F008F938A0E16800F004F9B8
:103A30003AA0216900F000F93CA0616900F0FCF8AF
:103A40003EA0A16900F0F8F840A0E16900F0F4F8A8
:103A500042A0216B00F0F0F844A0616B00F0ECF89C
:103A600046A0A16B00F0E8F82878400706D500F0E2
:103A700067FB014645A000F0DFF802E04BA000F034
:103A8000DBF8FEE770BD0000800000207073723A22
:103A9000203078253038780A000000007230303A43
:103AA000203078253038780A000000007230313A32
:103AB000203078253038780A000000007230323A21
:103AC000203078253038780A000000007230333A10
:103AD000203078253038780A000000007230343AFF
:103AE000203078253038780A000000007230353AEE
:103AF000203078253038780A000000007230363ADD
:103B0000203078253038780A000000007230373ACB
:103B1000203078253038780A000000007230383ABA
:103B2000203078253038780A000000007230393AA9
:103B3000203078253038780A000000007231303AA1
:103B4000203078253038780A000000007231313A90
:103B5000203078253038780A000000007231323A7F
:103B6000203078253038780A00000000206C723A46
:103B7000203078253038780A000000002070633A41
:103B8000203078253038780A0000000068617264BF
:103B9000206661756C74206F6E2074687265616454
:103BA0003A2025730D0A0D0A000000006861726456
:103BB000206661756C74206F6E2068616E646C6540
:103BC000720D0A0D0A00000070B50446121D22F0A5
:103BD00007000022094D403840F82250521C102A9C
:103BE000FAD301620021416281624FF0807200F1DC
:103BF0003005C263C16285E81A0070BDEFBEADDE5C
:103C000010B5FCF7B1FA044A1178491C1170BDE8EF
:103C10001040FCF7ADBA00001400002010B5FCF70E
:103C2000A3FA044A1178491E1170BDE81040FCF750
:103C30009FBA0000140000200FB47F2110B503AB21
:103C40000448029A00F022FC0248FFF7BDFE10BCB7
:103C50005DF814FB480300200268516002680A60A6
:103C60000160486070470268516002680A60016044
:103C700048607047D0E900124A60D0E90012116034
:103C8000406000607047000010B50346CCB2042AC3
:103C90001AD3810718D1194644EA042343EA03439F
:103CA00006E008C1103A08C141F8083B41F8043C5D
:103CB000102AF6D201E008C1121F042AFBD20B46DB
:103CC00002E000BF03F8014B521EFBD210BD10B53D
:103CD000044600202072FCF747FAF4E903124A6018
:103CE000D4E90012116064602460BDE81040FCF764
:103CF0003FBA0000074A002102EB01131B78834200
:103D000002D102EB01107047491C0429F4DB0020AA
:103D100070470000180000202DE9F04105461746C5
:103D20000E460846FFF7E6FF0446FFF7FDFD211D9E
:103D3000606800E000688842FCD1FFF703FE46F0AF
:103D40008000287208223946284600F0EDF8FCF77A
:103D50000BFA54F8041F0C354D602168296025606A
:103D60006C60BDE8F041FCF703BA007A000601D5AB
:103D7000012070470020704770B5FCF7F5F9114C31
:103D800005466088B0B9A068FFF79CF90E49401E4F
:103D9000626851F83010143991420BD020700B48F2
:103DA0006160007801F11C01002802F11C0006D0BE
:103DB000FCF7E1F92846BDE87040FCF7D9B9FCF7FB
:103DC000DAF9F7E758000020C803002014000020AB
:103DD00010B50446FCF7C8F9024694F834000E49C1
:103DE00020F00F00401C84F8340094F8350001EBFB
:103DF000C00104F114004B6818604B68A36148606F
:103E000006486161A16B836819438160BDE8104079
:103E10001046FCF7ADB90000C80300205800002090
:103E200010B50446FCF7A0F904F11401D1E9002310
:103E30005360D1E900231A60A161616194F83520D3
:103E4000074951F8323001EBC2018B4204D10549D8
:103E5000A36B8A689A438A60BDE81040FCF788B972
:103E6000C80300205800002008B509A0FFF7E4FEB1
:103E70000AA0FFF7E1FE12A00323009001221946D9
:103E800012A0FFF7D9FEBDE8084018A0FFF7D4BE86
:103E90000A205C207C202F0A000000002D205254B4
:103EA000202D2020202020546872656164204F70EE
:103EB00065726174696E672053797374656D0A0069
:103EC0004F6374203131203230323000202F207C7B
:103ED000205C202020202025642E25642E256420AF
:103EE0006275696C642025730A000000203230304E
:103EF00036202D203230313920436F707972696756
:103F000068742062792072742D746872656164200F
:103F10007465616D0A000000014600E0491C0A78E2
:103F2000002AFBD1081A704710B5002A07D00346B3
:103F300011F8014B03F8014B2CB1521EF8D110BD02
:103F400003F8011B00E00021521EF9D110BD000052
:103F500010B50A4900230A4C4B80184604EBC002F6
:103F6000401C526012602028F8DB1F2008700348B4
:103F70004B600C308B604060006010BD580000202A
:103F8000C803002010B5074CA068FFF79BF806494E
:103F9000401E51F8300014386060BDE810401C30FD
:103FA000FCF717B958000020C80300200148406002
:103FB0000060704770000020704700F0C7B8000034
:103FC00070B513480468FCF7CFF805462046FFF7A4
:103FD00027FF042084F8340004F1440000F0D0F9F5
:103FE0002046FFF7C2FE012801D1206F58B104F12D
:103FF00014010848FFF730FE2846FCF7B9F8BDE881
:104000007040FFF7B9BE2046FFF761FEF4E70000FD
:104010005C0000206400002000F002F8FCE70000D3
:1040200070B521E0FCF7A0F80546FFF77DF828B34E
:1040300015480168A1F11404D1E900024260D1E9F8
:104040000002106049600960FFF76EFC216F09B142
:10405000204688472046FFF788FE012809D0FFF751
:1040600071FC2846FCF784F8FFF75EF80028D9D1E8
:1040700070BD2046FFF72BFEFFF764FC2846BDE825
:104080007040FCF775B80000640000201FB50948B7
:1040900020231F2280218DE80F000023064A07A15C
:1040A000783800F00FF804B00248BDE810407838C6
:1040B00000F06CB8C8020020194000087469646CF4
:1040C000650000002DE9FF5F92460EAA0C4692E8BB
:1040D000E0010A46994683460121FFF71DFE8DE85F
:1040E000E0014B46524621465846FFF759FA04B0C4
:1040F000BDE8F09F10B500F0C1F8BDE8104000F039
:1041000025B870B5044690F8340000F00F0002287E
:1041100002D04FF0FF3070BDFCF726F8054604F1E1
:104120001400FFF7A7FD04F1440000F097F92846BA
:10413000FCF71EF82046FFF74BFE002070BD000084
:1041400001480068704700005C000020F1B5FCF7F2
:104150000BF805460C480468204600F02DF804F1E1
:1041600044006A460021064600F0F2F8304600F0AE
:104170002FF92846FBF7FCFFFFF7FEFD206B801CA4
:1041800000D120630020F8BD5C00002010B590F83D
:104190003610012280F835108A400221826380F8AF
:1041A0003410FFF7AEFF0348006808B1FFF7E4FDE5
:1041B000002010BD5C00002070B5044690F834006B
:1041C00000F00F00012802D04FF0FF3070BDFBF768
:1041D000CBFF054694F8340020F00F00801C84F8D3
:1041E00034002046FFF71CFE04F1440000F036F9CD
:1041F0002846FBF7BDFF002070BD10B504466FF0E8
:104200000100206304F11400FFF734FD2046FFF79E
:10421000DFFDBDE81040FFF7AFBD000070B5FBF754
:10422000A3FF06461348046894F8340000F00F001A
:10423000012819D1D4E90501884215D004F11400F0
:104240000546FFF717FD94F835000B4901EBC00058
:1042500041680D6041686960456028603046FBF741
:1042600087FFFFF789FD02E03046FBF781FF002062
:1042700070BD00005C000020C8030020002802DAA6
:104280004FF0FF3070474FF47A7190FBF1F290FBE2
:10429000F1F301FB130000EB40034A43C3EBC010F2
:1042A0004B1E03EBC00090FBF1F010447047000080
:1042B000014800687047000010000020094810B550
:1042C0000168491C0160FFF73BFF016C491E016456
:1042D00003D1C16B0164FFF7A1FFBDE8104000F0FE
:1042E00003B80000100000202DE9F041FFF7E0FFC7
:1042F0000646FBF739FF0746144D1EE060696FF074
:104300000041301A143C88421AD22046FFF788F93F
:10431000D4E907108847FFF7CBFF0646607A81078C
:1043200008D5C10706D020F001006072204600F0D9
:104330004FF802E020F0010060722C68AC42DDD141
:104340003846BDE8F041FBF713BF000070000020C5
:1043500049B1012904D0022908D003290ED109E06E
:10436000406A10600AE01168416207E0417A21F07A
:10437000020102E0417A41F00201417200207047DF
:1043800070B50546FBF7F0FE04462846FFF748F9EE
:104390002046FBF7EDFE2846FFF799FC002070BD94
:1043A0002DE9F0411746DDE906580A461E46044647
:1043B0000A21FFF7B1FC28F0010161720021C4E974
:1043C0000951C4E90776143464602460BDE8F081C3
:1043D000F8B50446FBF7C8FE05462046FFF720F96E
:1043E000607A20F0010060722846FBF7C1FEFFF7FB
:1043F0005FFF616A0844A062FBF7B6FE0546164AF5
:104400000020009202EBC002694653686FF0004C36
:104410005DF820200BE01268A2EBC0067769A66A5F
:10442000B74202D0BE1B664503D341F820209A4212
:10443000F1D10948001F0168491C016004F1140111
:104440000098FFF710FC607A40F001006072284687
:10445000FBF78EFE0020F8BD7000002070B504460A
:10446000407AC0070ED0FBF77FFE05462046FFF7D7
:10447000D7F82846FBF77CFE607A20F001006072D6
:10448000002070BD4FF0FF3070BD00002DE9FF4FE0
:104490008946044600EB090783B080464FF0FF3A97
:1044A0004FF0200BA74202D25746C8F1FF3907E16F
:1044B000252803D0BC4200D2207081E00026059957
:1044C000491C059108782D2811D02B2812D02028BE
:1044D00013D0232814D0302815D00A785546303A06
:1044E0000A2A13D205A800F02CF905461AE046F076
:1044F0001006E4E746F00406E1E746F00806DEE7CA
:1045000046F02006DBE746F00106D8E72A2809D165
:104510000698491C059120C80690002D02DA6D42CC
:1045200046F01006CDF800A0059801782E2918D184
:10453000401C05900178A1F130020A2A04D205A896
:1045400000F0FFF8009008E02A2908D1401C0590EF
:10455000069802C8069000910846002801DA00205B
:104560000090059800210278682A01D06C2A02D1B7
:10457000401C1146059000780A236F287DD00CDC82
:1045800063281FD004DC25287BD058280DD17EE07D
:10459000642801D0692808D17DE070285ED0732896
:1045A0002CD0752879D0782873D0BC4201D2252030
:1045B00020700598641C0178D1B3BC4200D22170F0
:1045C000641C7AE0F00608D458466D1E002D04DD08
:1045D000BC4200D22070641CF7E70699BC4211F877
:1045E000040B069100D22070584602E0BC4200D273
:1045F0002070641C6D1E002DF8DC5EE0069808C873
:10460000069003B93EA31846FFF786FC00990029DF
:1046100002DD884200DD0846F1060AD459462A46E2
:104620006D1E824205DDBC4200D22170641CF6E79B
:1046300052E0002106E0BC4201D21A782270491CE7
:104640005B1C641C8142F6DB5A4629466D1E814282
:1046500033DDBC4200D22270641CF6E7681C02D134
:10466000082546F0010600980296CDE9005006980C
:104670001023394604C806901BE006E001E00CE078
:1046800007E0BC429CD2252016E7082305E046F04F
:104690004006102301E046F002066C2901D068298B
:1046A0001DD0069804C8069000983946CDE9005000
:1046B00002962046FFF766F804460598401C0590D0
:1046C0000598007800287FF4F3AEB9F1000F11D0FF
:1046D000BC420DD220700DE0401E0590EDE706981B
:1046E00030F8041B06908AB2B007DDD512B2DBE7C2
:1046F00007F8010C07B0A4EB0800BDE8F08F00003C
:10470000284E554C4C29000000207047002070476F
:10471000002070470020704710B5FBF725FDFFF71C
:104720002DF9FFF7A1FBFFF741FCFFF711FCFFF7A5
:10473000C1F8FFF741FCFFF7A9FCFFF723FC0020BD
:1047400010BD10B5014600206FF02F0307E0541C88
:104750000C60127800EB800003EB400010440A6804
:104760001478303C0A2CF2D310BD00000000000089
:10477000000001020304060708090000000001020E
:104780000304000001000200010003000100020018
:10479000010004000100020001000300010002000A
:1047A00001000500010002000100030001000200F9
:1047B00001000400010002000100030001000200EA
:1047C00001000600010002000100030001000200D8
:1047D00001000400010002000100030001000200CA
:1047E00001000500010002000100030001000200B9
:1047F00001000400010002000100030001000200AA
:104800000100070001000200010003000100020096
:104810000100040001000200010003000100020089
:104820000100050001000200010003000100020078
:104830000100040001000200010003000100020069
:104840000100060001000200010003000100020057
:104850000100040001000200010003000100020049
:104860000100050001000200010003000100020038
:104870000100040001000200010003000100020029
:104880000100303132333435363738396162636490
:10489000656600303132333435363738394142437A
:1048A0004445460000000000000000000000000039
:1048B000000000003F400000000000000000300049
:1048C000400030004000000009000BC03D000BC05C
:1048D0003D00090018C024407FE0224031800000E4
:1048E000180024C01B000D803240018003801C4052
:1048F00027401C80074000401000600000000000BE
:10490000000000000000000000001F802040402048
:104910000000402020401F80000000000900060029
:104920001F80060009000000040004003F8004000E
:104930000400000000100060000000000000000003
:104940000400040004000400040000000000004013
:104950000000000000000000002001C00600380038
:10496000400000001F802040204020401F800000A9
:10497000000010403FC000400000000018C021406F
:104980002240244018400000108020402440244051
:104990001B80000002000D0011003FC0014000001C
:1049A0003C80244024402440238000001F80244079
:1049B00024403440038000003000200027C038002D
:1049C000200000001B802440244024401B80000065
:1049D0001C0022C0224022401F8000000000000076
:1049E000084000000000000000000000046000001B
:1049F00000000000000004000A0011002080404078
:104A000009000900090009000900000000004040F9
:104A1000208011000A000400180020002340240018
:104A2000180000001F802040274029401F40000040
:104A3000004007C039000F0001C0004020403FC0C7
:104A4000244024401B8000001F8020402040204044
:104A50003080000020403FC0204020401F800000E8
:104A600020403FC024402E4030C0000020403FC0C6
:104A700024402E00300000000F0010802040224013
:104A80003380020020403FC0040004003FC02040AB
:104A9000204020403FC020402040000000602020F7
:104AA00020203FC02000200020403FC024400B00B9
:104AB00030C0204020403FC020400040004000C0A7
:104AC0003FC03C0003C03C003FC0000020403FC04E
:104AD0000C4023003FC020001F8020402040204089
:104AE0001F80000020403FC0244024001800000028
:104AF0001F802140214020E01FA0000020403FC037
:104B00002440260019C0004018C024402440224000
:104B100031800000300020403FC0204030000000C5
:104B200020003F80004000403F80200020003E00E9
:104B300001C0070038002000380007C03C0007C053
:104B400038000000204039C0060039C02040000075
:104B50002000384007C0384020000000304021C00D
:104B60002640384020C00000000000007FE04020C8
:104B700040200000000070000C0003800040000096
:104B80000000402040207FE00000000000002000E6
:104B90004000200000000000001000100010001075
:104BA00000100010000000004000000000000000A5
:104BB000000002800540054003C0004020003FC0C7
:104BC00004400440038000000000038004400440CF
:104BD0000640000000000380044024403FC0004025
:104BE0000000038005400540034000000000044031
:104BF0001FC0244024402000000002E00550055062
:104C00000650042020403FC00440040003C0004080
:104C10000000044027C00040000000000010001009
:104C2000041027E00000000020403FC001400700C2
:104C300004C00440204020403FC00040004000002D
:104C400007C0040007C0040003C00000044007C000
:104C50000440040003C000400000038004400440FE
:104C600003800000041007F004500440038000009B
:104C7000000003800440045007F00010044007C007
:104C8000024004000400000000000640054005400A
:104C900004C00000000004001F8004400040000029
:104CA000040007800040044007C0004004000700E3
:104CB00004C0018006000400060001C0070001C016
:104CC00006000000044006C0010006C004400000C9
:104CD0000410071004E001800600040000000440F6
:104CE00005C00640044000000000000004007BE016
:104CF00040200000000000000000FFF00000000065
:104D0000000040207BE00400000000004000800024
:104D100040002000200040000000000000000000D3
:104D200000000000000000000000000000001FCC98
:104D3000000C0000000000000000080030006000CF
:104D40000800300060000000022003FC1E2002204A
:104D500003FC1E200220000000000E1811043FFF7B
:104D600010840C78000000000F0010840F3800C081
:104D7000077818840078000000780F8410C411248C
:104D80000E9800E40084000808006800700000002D
:104D9000000000000000000000000000000007E02C
:104DA00018182004400200000000400220041818D7
:104DB00007E00000000000000240024001800FF008
:104DC00001800240024000000080008000800FF857
:104DD00000800080008000000001000D000E000037
:104DE0000000000000000000000000800080008043
:104DF00000800080008000800000000C000C00009B
:104E00000000000000000000000000060018006024
:104E10000180060018002000000007F008081004B8
:104E20001004080807F000000000080408041FFC34
:104E3000000400040000000000000E0C10141024F8
:104E4000104411840E0C000000000C181004110412
:104E5000110412880C700000000000E003200424FC
:104E600008241FFC0024000000001F981084110477
:104E70001104108810700000000007F00888110469
:104E8000110418880070000000001C00100010FCC5
:104E900013001C001000000000000E3811441084A4
:104EA000108411440E38000000000700088C1044E4
:104EB0001044088807F00000000000000000030C08
:104EC000030C0000000000000000000000010106CB
:104ED00000000000000000000000008001400220EF
:104EE0000410080810040000022002200220022002
:104EF0000220022002200000000010040808041014
:104F0000022001400080000000000E001200100C82
:104F1000106C10800F00000003E00C1813E4142440
:104F200017C4082807D000000004003C03C41C403C
:104F3000074000E4001C000410041FFC11041104CD
:104F400011040E880070000003E00C181004100417
:104F5000100410081C10000010041FFC10041004A2
:104F60001004080807F0000010041FFC11041104CD
:104F700017C410040818000010041FFC11041100CD
:104F800017C010000800000003E00C181004100403
:104F900010441C780040000010041FFC10840080A6
:104FA000008010841FFC10040000100410041FFC7B
:104FB00010041004000000000003000110011001A3
:104FC0001FFE10001000000010041FFC11040380DD
:104FD0001464181C1004000010041FFC10040004CA
:104FE00000040004000C000010041FFC1F0000FC63
:104FF0001F001FFC1004000010041FFC0C04030021
:1050000000E010181FFC100007F00808100410043E
:105010001004080807F0000010041FFC1084108022
:10502000108010800F00000007F0081810241024D2
:10503000101C080A07F2000010041FFC11041100E4
:1050400011C011300E0C000400000E1C110410845D
:10505000108410441C3800001800100010041FFCBD
:10506000100410001800000010001FF810040004C5
:10507000000410041FF8100010001E0011E0001CB6
:10508000007013801C0010001FC0103C00E01F00C7
:1050900000E0103C1FC000001004180C163401C0C2
:1050A00001C01634180C100410001C00130400FC7E
:1050B00013041C00100000000804101C106410846D
:1050C00013041C04101800000000000000007FFE04
:1050D0004002400240020000000030000C0003804B
:1050E0000060001C0003000000004002400240027B
:1050F0007FFE0000000000000000000020004000D3
:1051000040004000200000000001000100010001FB
:1051100000010001000100010000400040002000EB
:10512000000000000000000000000098012401447D
:105130000144014400FC000410001FFC008801042D
:105140000104008800700000000000700088010465
:1051500001040104008800000000007000880104C0
:10516000010411081FFC0004000000F80144014480
:105170000144014400C800000000010401040FFCC8
:105180001104110411001800000000D601290129A2
:10519000012901C90106000010041FFC0084010060
:1051A0000100010400FC000400000104190419FCC2
:1051B00000040004000000000000000300010101E1
:1051C000190119FE0000000010041FFC002400401B
:1051D00001B4010C010400000000100410041FFCC5
:1051E0000004000400000000010401FC01040100AF
:1051F00001FC0104010000FC010401FC0084010029
:105200000100010400FC0004000000F80104010496
:105210000104010400F80000010101FF0085010400
:105220000104008800700000000000700088010484
:105230000104010501FF00010104010401FC0084D7
:105240000104010001800000000000CC01240124C1
:10525000012401240198000000000100010007F86A
:105260000104010400000000010001F80004000432
:105270000004010801FC0004010001800170000C21
:10528000001001600180010001F0010C003001C03C
:105290000030010C01F0010000000104018C0074D9
:1052A0000170018C01040000010101810171000EF7
:1052B000001801600180010000000184010C01342C
:1052C00001440184010C0000000000000000000007
:1052D00001003EFC4002400200000000000000000F
:1052E000FFFF0000000000000000400240023EFC02
:1052F000010000000000000000006000800080004D
:1053000040004000200020000000000000000000DD
:10531000000000000000000000000000000000008D
:10532000000000000000000000000000000000007D
:1053300000000000000000000000000F80380FFE99
:10534000380F80380000000000000000000000005E
:105350000000000000000100000600000C00003802
:1053600000003100000600000C0000380000300092
:10537000000000000000000061800067F807F9806D
:105380000061800061800061800061800067F80733
:10539000F98000618000000000000000000001C0F2
:1053A000E003E0F00630080418081FFFFE040E08B2
:1053B0000787F00381E000000000000001F0000614
:1053C0000C00040408060C7001F9C0000E00003B3C
:1053D000E000EC18070808040C180003E0000000C7
:1053E0000001E00007F003F818041C080417080780
:1053F000E1D003C0E00023B0003C0800200800001A
:105400001000000000000001000031000032000028
:105410001C00000000000000000000000000000070
:10542000000000000000000000000000000000007C
:1054300000000000000000007F0001FFC00780F0B6
:105440000C001810000420000200000000000020E2
:1054500000021000040C00180780F001FFC0007F5C
:10546000000000000000000000000000000000003C
:10547000000000004200006600006600003C0000E2
:10548000180003FFC0001800003C00006600006622
:1054900000004200000000000800000800000800B2
:1054A00000080000080001FFC0000800000800001C
:1054B00008000008000008000000000000010000D3
:1054C0003100003200001C0000000000000000005D
:1054D00000000000000000000000000000000000CC
:1054E000080000080000080000080000080000088C
:1054F000000008000008000008000008000000008C
:1055000000000000000000003800003800003800F3
:10551000000000000000000000000000000000008B
:105520000000000000000000000600001C000070E9
:10553000000180000E0000380000C0000700001CC1
:105540000000300000000000000000007F8001FF2C
:10555000E003807006001804000804000806001824
:1055600003807001FFE0007F800000000000000069
:10557000000001000801000801000803FFF807FF10
:10558000F80000080000080000080000000000000B
:1055900000000001C03802C058040098040118043B
:1055A0000218040418061C1803F81801E0F800009B
:1055B0000000000000000001C0E003C0F00400088B
:1055C00004080804080806180803F41801E7F000A6
:1055D00001E0000000000000000000000300000DDA
:1055E0000000110000610000810803010807FFF8B6
:1055F0000FFFF80001080001080000000000000093
:1056000000E007FCD006080806100806100806107F
:1056100008061838060FF00607C00000000000005A
:10562000000000003F8001FFE003843002081804FE
:105630001008041008041008071810030FF00007E2
:10564000C000000000000000000003C000070000D0
:105650000600000600F80607F806180006E0000736
:10566000000006000000000000000001E1E003F778
:10567000F0063410041808041808040C08040C0878
:1056800006161803F3F001C1E0000000000000005E
:10569000F80003FC30030638040208040208040280
:1056A000080404100308F001FFC0007F00000000A0
:1056B00000000000000000000000000000000000EA
:1056C00070380070380070380000000000000000E2
:1056D00000000000000000000000000000000000CA
:1056E00000000000301A00301C0000000000000024
:1056F00000000000000000000000000000000008A2
:1057000000001400002200004100008080010040E1
:105710000200200400100800080000000000000043
:1057200021000021000021000021000021000021B3
:1057300000002100002100002100002100000000E5
:105740000000000000000800080400100200200112
:10575000004000808000410000220000140000088A
:105760000000000000000003C00004C000040000AE
:10577000080038080F380808380810000C300007F7
:10578000E00003C000000000000000003F8000FFB8
:10579000E0038070020F1006708804C0880483083C
:1057A000047F8802C09003012000FE400000080032
:1057B00000180001F8003E0801C20007020007E2DD
:1057C0000000FE00001FC80001F8000038000008BB
:1057D00004000807FFF807FFF80408080408080495
:1057E000080804080806180803F41801E7F0000187
:1057F000E0000000000000003F8001FFE003807037
:105800000200180400080400080400080400100640
:1058100000200780C000000004000807FFF807FF11
:10582000F80400080400080400080400180200102E
:1058300003807001FFE0007F800000000400080783
:10584000FFF807FFF804080804080804080804081B
:1058500008043E080400080600180100600000006B
:1058600004000807FFF807FFF8040808040800040C
:105870000800040800043E00060000060000018045
:1058800000000000000000003F8001FFE003807086
:105890000600180400080402080402080203F007C6
:1058A00083F000020000020004000807FFF807FF71
:1058B000F8040808000800000800000800000800BC
:1058C00004080807FFF807FFF804000800000000BC
:1058D000000004000804000804000807FFF807FFA0
:1058E000F80400080400080400080000000000009C
:1058F0000000000000060000070000010400010491
:10590000000104000307FFFE07FFFC040000040081
:105910000004000004000807FFF807FFF8040C0863
:10592000001800003E0004C7800503C80600F80404
:10593000003804001800000804000807FFF807FFFB
:10594000F804000800000800000800000800000833
:1059500000000800001800006000000004000807B4
:10596000FFF807800807FC00007FC00003F800076D
:10597000C000780007800807FFF807FFF804000858
:1059800004000807FFF807000803C00000E000005B
:105990003800001E000007000001C00400F007FFEF
:1059A000F8040000000000007F8001FFE003807029
:1059B000060018040008040008060018030030015F
:1059C000FFE0007F8000000004000807FFF807FFE9
:1059D000F80404080404000404000404000404009F
:1059E000060C0003F80001F00000000000000000B9
:1059F0007F8001FFE00380700600880400880400B7
:105A0000C806003C03003E01FFE6007F8400000062
:105A100004000807FFF807FFF8040808040800045A
:105A20000C00040F00040BC00610F003F03801E076
:105A30000800000800000001E0F803F03006301014
:105A4000041808041808040C08040C0802061802BC
:105A500007F00781E000000001800006000004005C
:105A60000004000004000807FFF807FFF80400081E
:105A7000040000040000060000018000040000078C
:105A8000FFE007FFF0040018000008000008000015
:105A90000800000800000804001007FFE0040000F0
:105AA00004000006000007E00007FE00041FE000FD
:105AB00001F80000380001E0043E0007C0000600C5
:105AC0000004000004000007E00007FFC0041FF806
:105AD0000007C007F80007FF80043FF80007C00474
